:020000040800F2
:10000000800900204D020008CF1A00086D15000875
:10001000CD1A000843040008FD1E0008000000007F
:10002000000000000000000000000000D31A0008DB
:100030004504000800000000D11A0008D51A000885
:1000400067020008670200086702000867020008EC
:1000500067020008670200086702000867020008DC
:1000600067020008670200086702000867020008CC
:1000700067020008670200086702000867020008BC
:1000800067020008670200086702000867020008AC
:10009000670200086702000867020008670200089C
:1000A000670200086702000867020008670200088C
:1000B000670200086702000867020008670200087C
:1000C000670200086702000867020008670200086C
:1000D000670200086702000867020008670200085C
:1000E000670200086702000867020008670200084C
:1000F000670200086702000867020008670200083C
:10010000670200086702000867020008670200082B
:10011000670200086702000867020008670200081B
:10012000670200086702000867020008670200080B
:1001300067020008670200086702000867020008FB
:1001400067020008670200086702000867020008EB
:1001500067020008670200086702000867020008DB
:1001600067020008670200086702000867020008CB
:10017000670200086702000867020008000000002C
:1001800067020008670200086702000867020008AB
:10019000670200086702000867020008670200089B
:1001A00067020008670200086702000800F002F812
:1001B00000F03CF80AA090E8000C82448344AAF1C5
:1001C0000107DA4501D100F031F8AFF2090EBAE8C3
:1001D0000F0013F0010F18BFFB1A43F0010318477B
:1001E0000C1E00002C1E0000103A24BF78C878C1F5
:1001F000FAD8520724BF30C830C144BF04680C602D
:10020000704700000023002400250026103A28BF74
:1002100078C1FBD8520728BF30C148BF0B60704778
:100220001FB501F0D1FE1FBD10B510BD00F0CFF815
:100230001146FFF7F5FF01F07DFE00F0EDF803B485
:10024000FFF7F2FF03BC00F0F5F800000948804713
:1002500009480047FEE7FEE7FEE7FEE7FEE7FEE7A8
:10026000FEE7FEE7FEE7FEE704480549054A064BC0
:1002700070470000791B0008AD01000880030020D2
:1002800080090020800500208005002053EA020C30
:1002900000F069802DE9F04B4FF00006002B1FBFE6
:1002A000B3FA83F503FA05F424FA05F65E4012BFAB
:1002B0001643B2FA82F502FA05F4C5F120051EBF15
:1002C00022FA05FC44EA0C04203556EA044C4FEAB5
:1002D000144418BF641C4FF000084FF0000990420E
:1002E00071EB030C39D3002919BFB1FA81F701FA78
:1002F00007F6B0FA80F700FA07F6C7F120071EBF2D
:1003000020FA07FC46EA0C062037B6FBF4FCA7EB04
:100310000507103F07F01F0BCBF120060CFA0BFB73
:100320002CFA06F644BFB3460026202FA4BF5E4633
:100330004FF0000B5BEA060C08BF4FF0010B19EB06
:100340000B09ABFB027C48EB0608C01B06FB02CC8A
:100350000BFB03CC71EB0C01C1E70B460246414697
:100360004846BDE8F08B13B54FF000004FF0000198
:10037000AFF30080BDE81C4070474FF0000200B5AD
:10038000134694469646203922BFA0E80C50A0E8B8
:100390000C50B1F12001BFF4F7AF090728BFA0E866
:1003A0000C5048BF0CC05DF804EB890028BF40F832
:1003B000042B08BF704748BF20F8022B11F0804F74
:1003C00018BF00F8012B704770477047704775469B
:1003D00000F02CF8AE4605006946534620F00700B1
:1003E000854618B020B5FFF73FFFBDE820404FF02D
:1003F00000064FF000074FF000084FF0000B21F00F
:100400000701AC46ACE8C009ACE8C009ACE8C009DB
:10041000ACE8C0098D46704710B50446AFF30080C4
:100420002046BDE81040FFF70ABF000000487047B3
:100430002003002001491820ABBEFEE72600020081
:100440007047FEE7704772B6FEE700002DE9F84FEF
:10045000DFF8F8A10022012403254FF00F090AF16B
:10046000040BAAF1040E00BF0B6804FA02F6334035
:10047000B34270D10F7907F00307012F01D0022F8B
:1004800016D187684FEA420805FA08FC27EA0C07EC
:10049000D1F80CC00CFA08FC4CEA070CC0F808C0F4
:1004A0004768B7430E79C6F3001696403E43466050
:1004B0000E79F643B6070AD0C7684FEA420C05FA30
:1004C0000CF6B7438E6806FA0CF63E43C6600E790A
:1004D00006F00306022E10D1D60800EB8608D8F8E5
:1004E000206057074FEAD76C09FA0CF7BE430F6933
:1004F00007FA0CF73743C8F8207006684FEA420C39
:1005000005FA0CF7BE430F7907F0030707FA0CF75B
:10051000374307604E6816F4403F1CD04C4E376896
:1005200047F480473760366822F0030706F48046B8
:100530000096484E07EB060CDCF8086897073F0F5B
:1005400009FA07F826EA0806DFF80C81404503D1CE
:100550004FF0000841E072E0DFF80081404502D131
:100560004FF0010839E0DFF8F880404502D14FF044
:10057000020832E0DFF8EC80404502D14FF003087A
:100580002BE0DFF8E480404502D14FF0040824E07E
:10059000DFF8D880404502D14FF005081DE0DFF8B4
:1005A000D080404502D14FF0060816E0DFF8C48045
:1005B000404502D14FF007080FE0DFF8BC8040450E
:1005C00002D14FF0080808E0DFF8B080404502D1C2
:1005D0004FF0090801E04FF00A0808FA07F848EA66
:1005E0000608CCF80888DAF800605746D1F804C04D
:1005F0009E435FEACC2C00D51E433E60DBF80060D2
:100600005F46D1F804C09E435FEA8C2C00D51E43A0
:100610003E60DEF800607746D1F804C09E435FEA92
:100620008C3C00D51E433E60084F083F3E68D1F821
:1006300004C09E435FEACC3C00D51E433E60521C82
:10064000102AFFF411AFBDE8F88F0000083C01400C
:1006500044380240003001400000024000040240E3
:1006600000080240000C024000100240001402404A
:1006700000180240001C02400020024000240240FA
:100680000AB1816170470904FBE7000001488068F6
:10069000704700000400002002488168027811447D
:1006A00081607047040000200B4810B5016841F4D8
:1006B00000710160016841F480610160016841F4EA
:1006C00080710160032000F061F80F2000F006F84F
:1006D00000F024F8002010BD003C024070B50D4D24
:1006E00004464FF47A712878B1FBF0F00A490968A2
:1006F000B1FBF0F000F042FB48B9102C07D2002209
:100700002146501E00F022F800206C6070BD0120D0
:1007100070BD000004000020100000200A4808B549
:10072000016841F480410160006800F4804000905D
:100730000548001F016841F080510160006800F029
:100740008050009008BD000044380240F0B40E4BC9
:100750001B680C46C3F30223C3F10705042D00D91F
:100760000425191D072901D2002300E0DB1E012604
:1007700006FA05F1491E214099409E40761E16401A
:100780003143F0BC01F0BBBB0CED00E0064900F0CA
:10079000070208684FF6FF03184040EA0220034AA8
:1007A00010430860704700000CED00E00000FA05FF
:1007B0002DE9F8431748016841F080510160006855
:1007C000154F00F08050012600903E64FFF75EFF59
:1007D00005464FF47A78114C05E000BFFFF756FF4D
:1007E000401B40450DD86068C003F7D57E64FFF715
:1007F0004DFF0546464607E0FFF748FF401BB04265
:1008000002D90320BDE8F88360688003F4D5002096
:10081000F8E700004038024000000E42007000403F
:100820002DE9F0470E46050065D0DFF81481D8F8B1
:100830000000F7B200F00F00B04207D288F8007055
:10084000D8F8000000F00F00B04254D128683D4CA9
:10085000810712D5400703D5206840F4E05020609E
:100860002878000703D5206840F4604020602068A5
:10087000A96820F0F000084320602878C0072DD038
:10088000304968680839012812D0022813D003289B
:1008900011D00968890700292DDA216821F00301A8
:1008A00001432160FFF7F2FE814641F2883A0EE0F3
:1008B00009688903EFE709688901ECE7FFF7E6FEBD
:1008C000A0EB0901514502D90320BDE8F08720685B
:1008D000696800F00C00B0EB810FEFD1D8F8001080
:1008E000404601F00F01B14207D90770006800F0DF
:1008F0000F00B04201D00120E7E72878400705D576
:100900002068E96820F4E050084320602878000758
:1009100006D52068296920F4604040EAC1002060C3
:1009200000F038F82168084AC1F30311515CC8404F
:100930000649086006480068FFF7D0FE0020C4E7BB
:10094000003C024008380240D21F0008100000207E
:10095000080000200448054900680968044AC1F3FA
:100960008221515CC84070471000002008380240C6
:10097000E21F00080448054900680968044AC1F3F9
:100980004231515CC84070471000002008380240D6
:10099000E21F0008154810B5006810F00C0214485A
:1009A00013D01449042A0FD0082A0ED10F4C241F4B
:1009B0002268236802F03F025B0207D52068C0F37B
:1009C0008810A0FB010106E0084610BD2168C1F3B4
:1009D0008811A1FB00010023FFF758FC2168C1F337
:1009E0000141491C4900B0FBF1F010BD083802403C
:1009F0000024F40040787D012DE9F84F04006ED00A
:100A00002078DFF84C93C007A9F104054AD009F11A
:100A100004000168C1F38101012908D00068C0F316
:100A2000810002280AD1D9F80000400206D52868C2
:100A3000800337D560680028E1D033E06068B0F506
:100A4000803F10D0B0F5A02F286810D020F480305F
:100A50002860286820F4802028606068A8B1FFF72B
:100A600015FE06460DE0286840F48030F4E740F4B7
:100A700080202860F7E700BFFFF708FE801B64288E
:100A800073D828688003F7D50CE0FFF7FFFD064612
:100A900005E000BFFFF7FAFD801B6428F0D8286846
:100AA0008003F7D42078DFF8AC8280074FF0000A8B
:100AB0003ED5A748001D016811F00C0F08D0006852
:100AC000C0F3810002280BD1D9F80000400207D4FE
:100AD0002868800716D5E068012800D112E033E1CC
:100AE000E068B8B10120C8F80000FFF7CFFD064666
:100AF00005E000BFFFF7CAFD801B0228C0D82868A8
:100B00008007F7D52868216920F0F80040EAC10085
:100B100028600DE0C8F800A0FFF7B8FD064604E025
:100B2000FFF7B4FD801B02281FD828688007F7D480
:100B30002078000722D5864F87486169703771B1E8
:100B400001210160FFF7A2FD064604E0FFF79EFDCC
:100B5000801B022809D838688007F7D50EE0C0F856
:100B600000A0FFF793FD064605E082E0FFF78EFD4B
:100B7000801B02287DD838688007F7D4207840078A
:100B800068D5DFF8CCB100270BF13C0BDBF8000097
:100B9000C0000BD4DBF8001041F08051CBF80010FE
:100BA000DBF80000012700F0805000906B4E3068A9
:100BB000C00510D4306840F480703060FFF766FDE7
:100BC000009005E0FFF762FD0099401A022850D816
:100BD0003068C005F6D55E4EA0686C3601280FD08F
:100BE0000528306810D020F001003060306820F017
:100BF00004003060A068B8B1FFF748FD00900FE036
:100C0000306840F00100F4E740F004003060F7E79E
:100C1000FFF73CFD0099411A41F28830814266D8C5
:100C200030688007F4D50EE0FFF730FD009007E054
:100C3000FFF72CFD0099411A41F28830814256D8C5
:100C400030688007F4D42FB1DBF8001021F0805118
:100C5000CBF80010A069C8B33D49091D0968C1F36C
:100C6000810102294AD00228504607D0C8F8600006
:100C700000E03CE0FFF70AFD04463BE04746C8F8C9
:100C80006000FFF703FD064605E000BFFFF7FEFC2E
:100C9000801B02282BD828688001F7D4D4E90701EB
:100CA0000843A16A2E4A490802EB0141626A41EAFF
:100CB0008211084394F82C1040EA0161C9F8001031
:100CC00001203866FFF7E2FC044606E03EE000BF84
:100CD000FFF7DCFC001B022809D828688001F7D543
:100CE00034E000BFFFF7D2FC001B022802D903202A
:100CF000BDE8F88F28688001F4D427E00128F7D0F8
:100D0000D9F80000E26900F4800191421CD1226A06
:100D100000F03F01914217D147F6C071626A01406D
:100D2000B1EB821F10D1A26A4FF0FF3300F44031C3
:100D300003EB5202B1EB024F06D194F82C1000F0F5
:100D40007060B0EB016F01D00120D1E70020CFE748
:100D50000438024000004742800E474200700040C5
:100D60000000FFFF4FF0E0210428086903D020F0C5
:100D700004000861704740F00400FAE710B5401E17
:100D8000B0F1807F01D3012010BD4FF0E0246061FD
:100D90000F21601701F0B3F80020A0610720206147
:100DA000002010BD10B590F83C20012A22D001226D
:100DB00080F83C20CA688C6822F4407222434C6858
:100DC00022F4806222430C6822F4006222430C6900
:100DD00022F4805222434C6922F400522243C96912
:100DE000002322F480420A4301684A6480F83C30C0
:100DF000002010BD022010BD70B590F83C20012AE3
:100E000032D0012480F83C40022280F83D20036863
:100E10005A689D6822F070060A6832435A60134B84
:100E200002689A4214D0B2F1804F11D0104B9A420E
:100E30000ED0104B9A420BD00F4B9A4208D00F4B5A
:100E40009A4205D00E4B9A4202D00E4B9A4204D1E0
:100E5000496825F080031943916080F83D400021E6
:100E600080F83C10084670BD022070BD00000140B3
:100E70000004004000080040000C00400004014055
:100E8000004001400018004010B5040003D094F861
:100E90003D0010B107E0012010BD002084F83C00A7
:100EA000204600F01FF8022084F83D00211D206834
:100EB00000F06AFE012084F8460084F83E0084F8C1
:100EC0003F0084F8400084F8410084F8420084F830
:100ED000430084F8440084F8450084F83D00002075
:100EE00010BD000008B50C4A01680C48914207D1BA
:100EF000016841F400310160006800F4003009E04D
:100F0000074A914207D1016841F4802101600068DD
:100F100000F48020009008BD0044014044380240A5
:100F2000004801402DE9F0410D46040003D094F83B
:100F30003D0018B108E00120BDE8F081002084F8F0
:100F40003C00204600F040F8022084F83D00206874
:100F5000816844F2070291438160211D206800F0FE
:100F600013FE226890689169166A2B68AF69034383
:100F700040F20330814341EA0721A868EF69084342
:100F80004FF6FC418843E96840EA0720014328699D
:100F90002F6A000140EA0730084369686D6926F04E
:100FA000AA0646EA0515294393602268906154F821
:100FB000460B0162012004F81F09E0752076E076F7
:100FC0002077A0750020B7E7F0B587B0044614215C
:100FD0006846FFF7D2F9484A2568002347490224AA
:100FE00001264748954214D1444A1432156845F009
:100FF00001051560126802F0010205920A6842F0CC
:1010000001020A60096801F0010105914FF4407185
:1010100030E03A4A1032B5F1804F1AD0394FC0262D
:10102000BD4231D1156845F002051560126802F025
:10103000020205920A6842F001020A6009680096FD
:10104000CDE9014301F00101CDE904410393694673
:1010500016E0156845F001051560126802F00102FE
:1010600005920A6842F001020A60096801F0010174
:10107000059103210091CDE90143CDE9033669468D
:10108000FFF7E4F907B0F0BD1F48854217D110689B
:1010900040F004001060106800F00400059008683B
:1010A00040F00200086008680096CDE9014300F0B6
:1010B0000200CDE90440694603931448E0E7144870
:1010C0008542DFD1106840F008001060106800F021
:1010D00008000590086840F08000086008686946CC
:1010E00000F0800005904FF440600090CDE901438E
:1010F000CDE903340748C3E700000140303802401F
:1011000000000240000400400008004000040240CB
:10111000000C0040001C024070B586B0044614214B
:101120006846FFF72AF92748226800242649022545
:101130000326824220D1086840F004000860086855
:1011400000F004000590086840F4807008600868AA
:10115000694600F48070059030020090CDE901549A
:10116000CDE903461948FFF771F960200090CDE9F9
:101170000154694616480DE0164B17489A420FD1A4
:101180000A6842F002020A60096801F00201059152
:10119000811511E0CDE90346FFF758F906B070BD9F
:1011A0000E4B9A42FAD10A6842F002020A600968BC
:1011B00001F00201059159150091CDE901546946EC
:1011C000E8E7000000040140303802400008024017
:1011D0000020024000440140000402400048014059
:1011E00070B5044690F83C0000260D4601280FD04B
:1011F000012084F83C006AB1042A1DD0082A2FD0AF
:101200000C2A3FD00126002084F83C00304670BDF7
:10121000022070BD206800F029FD2068816941F03E
:10122000080181612068816921F0040181612068E1
:1012300081692A69114311E0206800F047FD2068A8
:10124000816941F4006181612068816921F48061D4
:101250008161206881692A6941EA02218161D2E7BE
:10126000206800F069FD2068C16941F00801C16192
:101270002068C16921F00401C1612068C1692A693F
:10128000114311E0206800F08BFD2068C16941F432
:101290000061C1612068C16921F48061C161206879
:1012A000C1692A6941EA0221C161ACE710B50400B5
:1012B00003D094F83D0010B107E0012010BD0020DC
:1012C00084F83C00204600F01FF8022084F83D001E
:1012D000211D206800F058FC012084F8460084F8A5
:1012E0003E0084F83F0084F8400084F8410084F810
:1012F000420084F8430084F8440084F8450084F8F0
:101300003D00002010BD000008B500680649884275
:1013100008D10648016841F002010160006800F050
:101320000200009008BD0000000401404438024063
:1013300010B50446022249B104290ED0082913D061
:1013400094F84100012816D0012010BD94F83E0009
:101350000128F9D184F83E200FE094F83F000128DD
:10136000F2D184F83F2008E094F840000128EBD146
:1013700084F8402001E084F841200122206800F038
:1013800067FC16492068164A884201D0904203D172
:10139000436C43F4004343642068884213D0B0F1A7
:1013A000804F10D00F4988420DD00F4988420AD093
:1013B0000E49884207D0904205D00D49884202D09C
:1013C0000C49884204D1816801F00701062903D045
:1013D000016841F001010160002010BD00000140E2
:1013E000000401400004004000080040000C0040E0
:1013F000004001400018004070B5040004D094F88B
:101400003D00002510B106E0012070BD84F83C507D
:10141000204600F023F8242084F83D002068C168AD
:1014200021F40051C160204600F0E2FC206801690F
:1014300021F4904101612068416921F02A01416154
:101440002068C16841F40051C1602564202084F8FF
:101450003D0084F83E00002070BD0000F0B587B06C
:10146000044614216846FEF788FF3A49DFF8E0C0D9
:1014700023680024374A10390225032608273648F6
:10148000634514D1136843F400231360126802F417
:10149000002205920A6842F004020A60096801F01D
:1014A00004010591B102CDE9001569462AE0DFF893
:1014B000ACC063452ED1136843F4801313601268E7
:1014C00002F4801205920A6842F004020A600A6877
:1014D00002F0040205920A6842F008020A600968F4
:1014E00002AB01F0080105914FF48051CDE90015E0
:1014F00083E8D0006946FEF7A9FF0420CDE9000586
:101500001748694602AB83E8D00000BFFEF79EFF94
:1015100007B0F0BD13488342FAD1106840F40030A0
:101520001060106800F400300590086840F0010079
:1015300008600868029400F0010005900C20CDE9D5
:1015400000050720CDE9036069460748DEE7000093
:10155000004C00404038024000080240005000406B
:10156000000C02400044004000000240FEE7000082
:101570002DE9F04786B014216846FEF7FEFE3B4891
:101580000024016841F004010160016801F00401D8
:101590000591016841F480710160016801F4807176
:1015A0000591016841F080010160016801F080014E
:1015B0000591016841F001010160016801F001013C
:1015C0000591016841F008010160016801F008011E
:1015D0000591016841F0020101600068244F00F0AC
:1015E00002004FF409650590002229463846FFF7AE
:1015F00047F8DFF8808045F20C060022314640466D
:10160000FFF73EF8DFF87090002230214846FFF7E0
:1016100037F8DFF868A0002240215046FFF730F885
:1016200000950125CDE90154694638460394FEF73B
:101630000DFF0096CDE90154694640460394FEF73C
:1016400005FF30200090CDE90154694648460394D7
:10165000FEF7FCFE40200090CDE90154694650465B
:101660000394FEF7F3FE06B0BDE8F0873038024081
:1016700000200240001C024000000240000C02401A
:1016800010B588B01C216846FEF777FE154814494E
:10169000002401605921C0E9011444F61F61C0E92A
:1016A00003148461FFF7F0FB08B1FEF7CCFE0D4890
:1016B000FFF7FCFD08B1FEF7C6FE6020CDE900048F
:1016C00002940022694607480494FFF789FD08B197
:1016D000FEF7B9FE0348FFF71FFD08B010BD00007C
:1016E00000440140C401002010B588B01C216846A8
:1016F000FEF743FE144813490024C0E9001442F2E7
:101700002731C0E9024104618461FFF7BDFB08B1E4
:10171000FEF799FE0C48FFF7C9FD08B1FEF793FEEE
:101720006020CDE900040294002269460648049432
:10173000FFF756FD08B1FEF786FE0348FFF7ECFC05
:1017400008B010BD004801400C02002010B58CB05C
:1017500024216846FEF711FE002416480994144916
:101760000A94C0E900144FF6FF71C0E90241046118
:10177000446184610120CDE90004CDE902040494B0
:10178000CDE90540079469460A480894FFF7CAFB6B
:1017900008B1FEF758FE099409A906480A94FFF714
:1017A0002BFB002801D0FEF74EFE0CB010BD000050
:1017B000000001401400002010B58CB024216846C0
:1017C000FEF7DBFD0024144809944FF080410A9491
:1017D000C0E90014611EC0E9024104618461012076
:1017E000CDE90004CDE902040494CDE90540079455
:1017F000694609480894FFF795FB08B1FEF723FEF8
:10180000099409A904480A94FFF7F6FA002801D0C0
:10181000FEF719FE0CB010BD5C00002010B58CB0B6
:1018200024216846FEF7A9FD0024154809941349B0
:101830000A94C0E900144FF6FF71C0E90241046147
:1018400084610120CDE90004CDE902040494CDE9CE
:101850000540079469460A480894FFF763FB08B1FE
:10186000FEF7F1FD099409A905480A94FFF7C4FAA7
:10187000002801D0FEF7E7FD0CB010BD00040040C9
:10188000A400002010B58CB024216846FEF775FD39
:1018900000241548099413490A94C0E900144FF62E
:1018A000FF71C0E90241046184610120CDE90004B7
:1018B000CDE902040494CDE90540079469460A483D
:1018C0000894FFF72FFB08B1FEF7BDFD099409A9A5
:1018D00005480A94FFF790FA002801D0FEF7B3FDFF
:1018E0000CB010BD00080040EC00002010B58CB01A
:1018F00024216846FEF741FD002415480994134948
:101900000A94C0E90014611EC0E9024104618461C7
:101910000120CDE90004CDE902040494CDE905409D
:10192000079469460A480894FFF7FCFA08B1FEF7E5
:101930008AFD099409A906480A94FFF75DFA002870
:1019400001D0FEF780FD0CB010BD0000000C00407F
:101950003401002010B592B000240F941C21684679
:101960001094FEF70AFD202107A8FEF706FD2C487B
:101970002A49C0E9001442F22731C0E9024104615A
:1019800044618461FFF792FC08B1FEF75CFD0F949F
:101990000FA923481094FFF72FFA08B1FEF753FD63
:1019A0006020CDE90004029403940494059400227D
:1019B00069461B480694FFF713FC08B1FEF743FD88
:1019C000042269461648FFF70BFC08B1FEF73BFD01
:1019D000082269461248FFF703FC08B1FEF733FD01
:1019E0000C2269460E48FFF7FBFB08B1FEF72BFD02
:1019F0000794089409944FF400500A94CDE90B40E1
:101A000007A907480E94FFF7CDF908B1FEF71BFDB3
:101A10000348FFF781FB12B010BD00000004014035
:101A20007C0100200C4810B50A4901604FF4E131F7
:101A30004160002181600C22C160C0E90412816113
:101A4000C161FFF7D9FC002803D0BDE81040FEF7C4
:101A5000FABC10BD004C0040540200200C4810B5E8
:101A60000A4901604FF4E1314160002181600C229C
:101A7000C160C0E904128161C161FFF7BDFC0028AB
:101A800003D0BDE81040FEF7DEBC10BD00500040A2
:101A9000980200200C4810B50A4901604FF4E1316A
:101AA0004160002181600C22C160C0E904128161A3
:101AB000C161FFF7A1FC002803D0BDE81040FEF78C
:101AC000C2BC10BD00440040DC020020FEE7FEE77F
:101AD00070477047FEF7E0BD30B593B030216846DF
:101AE000FEF74BFC14210CA8FEF747FC204800250C
:101AF000016841F080510160006800F08050119051
:101B00001C48016841F4404101600068022400F46F
:101B100040401190012003901020049000940694FE
:101B20000820CDE90750B420CDE9090404200B902A
:101B30006846FEF761FF08B172B6FEE7FEF738FEB1
:101B400008B172B6FEE70CA90F2081E831004FF40E
:101B5000A0500F904FF48050109005210CA8FEF774
:101B60005FFE002801D072B6FEE713B030BD000062
:101B700040380240007000400248016841F47001A2
:101B80000160704788ED00E0F0B50268254C264DF5
:101B9000264E274F274B4FF0804CA04209D060457E
:101BA00007D0A84205D0B04203D0B84201D0984235
:101BB00004D122F0700E4A6842EA0E02A0421BD005
:101BC000604519D0A84217D0B04215D0B84213D002
:101BD000984211D0184DA8420ED0184DA8420BD0F3
:101BE000174DA84208D0174DA84205D0164DA8425F
:101BF00002D0164DA84203D122F44075CA682A4388
:101C00004D6922F080022A4302608A68C2620A6833
:101C10008262A04201D0984201D109690163012189
:101C20004161F0BD00000140000400400008004098
:101C3000000C00400004014000400140004401400D
:101C40000048014000180040001C004000200040F7
:101C500010B501F01F030121046A99408C4304620E
:101C6000016A9A401143016210BD0000F0B5026A9A
:101C700022F001020262036A42688469124E24F073
:101C800073050C682C4323F002058B682B430D4D24
:101C9000A84201D0B04205D123F00807CB683B43EE
:101CA00023F00403A84201D0B04205D14D6922F4CB
:101CB000407215438A692A434260846149684163DE
:101CC0000362F0BD0000014000040140F0B5026A6B
:101CD00022F010020262026A436884690D6824F4EB
:101CE000E64444EA05248D6822F0200242EA051207
:101CF0000F4D104EA84201D0B04206D1CF6822F05D
:101D0000800242EA071222F04002A84201D0B0420B
:101D100007D14D6923F4406343EA85038D6943EAA3
:101D2000850343608461496881630262F0BD0000FD
:101D30000000014000040140F0B5026A22F4807204
:101D40000262026A4368C46922F4007224F07305D7
:101D50000C68124E2C438D6842EA05220E4DA842B3
:101D600001D0B04206D1CF6822F4006242EA0722D5
:101D700022F48062A84201D0B04207D14D6923F419
:101D8000405343EA05138D6943EA05134360C46178
:101D90004968C1630262F0BD0000014000040140D7
:101DA00030B5026A22F480520262046A4268C36952
:101DB0000D6823F4E64343EA05238D6824F40054B8
:101DC00044EA0534084DA84202D0084DA84204D187
:101DD0004D6922F4804242EA85124260C36149683B
:101DE0000164046230BD00000000014000040140B5
:101DF00070B5044600680169E26821F4405111435E
:101E000001612169A068E2690843616911430843DF
:101E10002168CA6849F20C639A430243CA60206889
:101E20004169A26921F4407111434161314920683F
:101E3000884202D03049884202D1FEF79BFD01E082
:101E4000FEF788FDE2690023192164253226B2F5E8
:101E5000004F626828D0A0FB0101930F9200FEF7AB
:101E600015FA0146B0FBF5F06FF01802504301EB94
:101E7000800006EB0010B0FBF5F000F0F002B1FBC3
:101E8000F5F002EB0012B1FBF5F06FF018035843C8
:101E900001EB800006EB0010B0FBF5F000F00F0046
:101EA00021681044886070BDA0FB010192185B415D
:101EB000FEF7ECF90146B0FBF5F00201B1FBF5F0DD
:101EC0006FF01803584301EB800006EBC000B0FB35
:101ED000F5F000F0F80002EB4002B1FBF5F05843DA
:101EE00001EB800006EBC000B0FBF5F000F007004E
:101EF000D6E700000010014000140140FEE709078A
:101F0000090E002804DB00F1E02080F8001470477F
:101F100000F00F0000F1E02080F8141D7047000071
:101F200010B504460420FEF71DFF0148046010BDF3
:101F300000000020FEF7B8FBFFF7CEFDFFF718FB0F
:101F4000FFF708FDFFF79CFBFFF700FCFFF734FCF1
:101F5000FFF764FCFFF796FCFFF7C8FCFFF7C4FB34
:101F6000FFF760FDFFF77AFDFFF794FDB420FFF760
:101F7000D7FF00210D48FFF7DBF904210B48FFF7DD
:101F8000D7F908210948FFF7D3F90C210748FFF7D3
:101F9000CFF900210648FFF7CBF900210548FFF7EC
:101FA000C7F900BF00F008F8FCE700007C01002042
:101FB0000C020020C4010020024941F28730086071
:101FC00070470000344401404FF04070E1EE100AC9
:101FD0007047000000000000000001020304060733
:101FE0000809000000000102030400000C200008A2
:101FF0000000002014000000E80100082020000874
:10200000140000206C090000040200080000000019
:102010000100000010000000000000000024F40097
:04000005080001AD41
:00000001FF
