:020000040800F2
:1000000048080020C1010008EB200008311A000850
:10001000E920000805030008F3260008000000009E
:10002000000000000000000000000000EF200008B9
:100030003B03000800000000ED200008F12000084C
:10004000DB010008DB010008DB010008DB01000820
:10005000DB010008DB010008DB010008DB01000810
:10006000DB010008DB010008DB010008DB01000800
:10007000DB010008DB010008DB010008DB010008F0
:10008000DB010008DB010008DB010008DB010008E0
:10009000DB010008DB010008DB010008DB010008D0
:1000A000DB010008DB010008DB010008DB010008C0
:1000B000DB010008DB010008DB010008DB010008B0
:1000C000DB010008DB010008DB010008DB010008A0
:1000D000DB010008DB010008DB010008DB01000890
:1000E000DB010008DB010008DB010008DB01000880
:1000F000DB010008DB010008DB010008DB01000870
:10010000DB010008DB010008DB010008DB0100085F
:1001100009240008DB010008DB010008DB010008FE
:10012000DB010008DB010008DB010008DB0100083F
:10013000DB010008DB010008DB010008DB0100082F
:10014000DB010008DB010008DB010008DB0100081F
:10015000DB010008DB010008DB010008DB0100080F
:10016000DB010008DB010008DB010008DB010008FF
:10017000DB010008DB010008DB01000800000000D3
:10018000DB010008DB010008DB010008DB010008DF
:10019000DB010008DB010008DB010008DB010008CF
:1001A000DB010008DB010008DB010008DFF80CD0F0
:1001B00000F07AF800480047E928000848080020C5
:1001C0000648804706480047FEE7FEE7FEE7FEE7F1
:1001D000FEE7FEE7FEE7FEE7FEE7FEE79121000807
:1001E000AD0100082DE9F05F0546002092469B46D0
:1001F00088460646814640241BE02846414647463D
:10020000224600F041F853465A46C01A914110D395
:1002100011461846224600F028F82D1A67EB01080F
:100220004F4622460120002100F01FF817EB00097D
:100230004E41201EA4F10104DFDC484631462A4627
:100240004346BDE8F09FD2B201E000F8012B491E01
:10025000FBD270470022F6E710B513460A46044663
:100260001946FFF7F0FF204610BD202A04DB203A94
:1002700000FA02F1002070479140C2F1200320FAF9
:1002800003F3194390407047202A04DB203A21FAF7
:1002900002F00021704721FA02F3D040C2F120029F
:1002A0009140084319467047064C074D06E0E06848
:1002B00040F0010394E8070098471034AC42F6D3AD
:1002C000FFF778FF882B0008A82B0008064A091AB8
:1002D0005068431A6FF01800484303EB400013685E
:1002E000C2E900137047000034000020091A64229C
:1002F00001FB02F0024A1368C2E9001370470000D4
:100300002C000020FEE700B5024602F07FFB1046FD
:1003100002F096FB104602F0ADFB10465DF804EBD0
:1003200002F0C4BB00B502F079FB02F091FB02F0D1
:10033000A9FB5DF804EB02F0C3BB704772B6FEE7A1
:100340002DE9F0410446876D00F076F9064694F8F1
:1003500035000025022806D08020606584F83450DE
:100360000120BDE8F0812068016821F016010160DC
:100370002068416921F080014161206C08B9A06CBE
:1003800020B12068016821F008010160206801683F
:1003900021F0010101600CE000F04EF9801B0528FE
:1003A00007D920206065032084F8350084F8345094
:1003B000D7E720680068C007EED194F85C103F20B2
:1003C0008840B860012084F8350084F8345000205B
:1003D000C7E790F83510022903D08021416501203C
:1003E0007047052180F835100068016821F001018F
:1003F00001600020704700002DE9F84FDFF8F8A1F8
:100400000022012403254FF00F090AF1040BAAF181
:10041000040E00BF0B6804FA02F63340B34270D1F9
:100420000F7907F00307012F01D0022F16D187683B
:100430004FEA420805FA08FC27EA0C07D1F80CC07D
:100440000CFA08FC4CEA070CC0F808C04768B74330
:100450000E79C6F3001696403E4346600E79F64389
:10046000B6070AD0C7684FEA420C05FA0CF6B74344
:100470008E6806FA0CF63E43C6600E7906F0030657
:10048000022E10D1D60800EB8608D8F82060570756
:100490004FEAD76C09FA0CF7BE430F6907FA0CF75D
:1004A0003743C8F8207006684FEA420C05FA0CF78B
:1004B000BE430F7907F0030707FA0CF737430760CD
:1004C0004E6816F4403F1CD04C4E376847F48047C6
:1004D0003760366822F0030706F480460096484EDF
:1004E00007EB060CDCF8086897073F0F09FA07F8D6
:1004F00026EA0806DFF80C81404503D14FF00008DA
:1005000041E072E0DFF80081404502D14FF0010880
:1005100039E0DFF8F880404502D14FF0020832E0C0
:10052000DFF8EC80404502D14FF003082BE0DFF804
:10053000E480404502D14FF0040824E0DFF8D88081
:10054000404502D14FF005081DE0DFF8D08040455E
:1005500002D14FF0060816E0DFF8C480404502D112
:100560004FF007080FE0DFF8BC80404502D14FF0A4
:10057000080808E0DFF8B080404502D14FF00908D4
:1005800001E04FF00A0808FA07F848EA0608CCF834
:100590000888DAF800605746D1F804C09E435FEA45
:1005A000CC2C00D51E433E60DBF800605F46D1F8DE
:1005B00004C09E435FEA8C2C00D51E433E60DEF8EB
:1005C00000607746D1F804C09E435FEA8C3C00D5BA
:1005D0001E433E60084F083F3E68D1F804C09E436A
:1005E0005FEACC3C00D51E433E60521C102AFFF44B
:1005F00011AFBDE8F88F0000083C014044380240CC
:1006000000300140000002400004024000080240A7
:10061000000C02400010024000140240001802408A
:10062000001C024000200240002402400AB1816107
:1006300070470904FBE7000001488068704700002C
:100640003C000020024881680278114481607047B4
:100650003C0000200B4810B5016841F400710160B6
:10066000016841F480610160016841F480710160BA
:10067000032000F06FF80F2000F006F800F024F8D7
:10068000002010BD003C024070B50D4D04464FF4F3
:100690007A712878B1FBF0F00A490968B1FBF0F0F3
:1006A00000F050FB48B9102C07D200222146501E02
:1006B00000F030F800206C6070BD012070BD0000BB
:1006C0003C000020480000200A4808B5016841F4B9
:1006D00080410160006800F4804000900548001FE0
:1006E000016841F080510160006800F08050009086
:1006F00008BD000044380240002809DB00F01F025A
:10070000012191404009800000F1E020C0F8001173
:1007100070470000F0B40E4B1B680C46C3F3022375
:10072000C3F10705042D00D90425191D072901D29D
:10073000002300E0DB1E012606FA05F1491E2140D8
:1007400099409E40761E16403143F0BC01F0D2BF66
:100750000CED00E0064900F0070208684FF6FF03C1
:10076000184040EA0220034A104308607047000026
:100770000CED00E00000FA052DE9F8431748016888
:1007800041F0805101600068154F00F08050012653
:1007900000903E64FFF750FF05464FF47A78114C05
:1007A00005E000BFFFF748FF401B40450DD86068DB
:1007B000C003F7D57E64FFF73FFF0546464607E0D6
:1007C000FFF73AFF401BB04202D90320BDE8F8838F
:1007D00060688003F4D50020F8E70000403802404C
:1007E00000000E42007000402DE9F0470E46050063
:1007F00065D0DFF81481D8F80000F7B200F00F00E0
:10080000B04207D288F80070D8F8000000F00F005E
:10081000B04254D128683D4C810712D5400703D51A
:10082000206840F4E05020602878000703D5206855
:1008300040F4604020602068A96820F0F000084380
:1008400020602878C0072DD0304968680839012811
:1008500012D0022813D0032811D009688907002973
:100860002DDA216821F0030101432160FFF7E4FE46
:10087000814641F2883A0EE009688903EFE709688A
:100880008901ECE7FFF7D8FEA0EB0901514502D939
:100890000320BDE8F0872068696800F00C00B0EB29
:1008A000810FEFD1D8F80010404601F00F01B1429E
:1008B00007D90770006800F00F00B04201D0012096
:1008C000E7E72878400705D52068E96820F4E0507C
:1008D000084320602878000706D52068296920F49D
:1008E000604040EAC100206000F038F82168084A02
:1008F000C1F30311515CC84006490860064800680E
:10090000FFF7C2FE0020C4E7003C02400838024066
:10091000702B0008480000204000002004480549D2
:1009200000680968044AC1F38221515CC8407047DD
:100930004800002008380240802B00080448054980
:1009400000680968044AC1F34231515CC8407047ED
:100950004800002008380240802B0008154810B5D8
:10096000006810F00C02144813D01449042A0FD068
:10097000082A0ED10F4C241F2268236802F03F0280
:100980005B0207D52068C0F38810A0FB010106E0D8
:10099000084610BD2168C1F38811A1FB00010023A6
:1009A000FFF720FC2168C1F30141491C4900B0FB5D
:1009B000F1F010BD083802400024F40040787D01B9
:1009C0002DE9F84F04006ED02078DFF84C93C00773
:1009D000A9F104054AD009F104000168C1F38101BD
:1009E000012908D00068C0F3810002280AD1D9F893
:1009F0000000400206D52868800337D560680028CB
:100A0000E1D033E06068B0F5803F10D0B0F5A02FA2
:100A1000286810D020F480302860286820F48020D6
:100A200028606068A8B1FFF707FE06460DE0286859
:100A300040F48030F4E740F480202860F7E700BFFE
:100A4000FFF7FAFD801B642873D828688003F7D568
:100A50000CE0FFF7F1FD064605E000BFFFF7ECFDF7
:100A6000801B6428F0D828688003F7D42078DFF84A
:100A7000AC8280074FF0000A3ED5A748001D0168F0
:100A800011F00C0F08D00068C0F3810002280BD1D0
:100A9000D9F80000400207D42868800716D5E0681E
:100AA000012800D112E033E1E068B8B10120C8F8B4
:100AB0000000FFF7C1FD064605E000BFFFF7BCFDE3
:100AC000801B0228C0D828688007F7D528682169CC
:100AD00020F0F80040EAC10028600DE0C8F800A04E
:100AE000FFF7AAFD064604E0FFF7A6FD801B0228DB
:100AF0001FD828688007F7D42078000722D5864FB2
:100B000087486169703771B101210160FFF794FD79
:100B1000064604E0FFF790FD801B022809D83868DC
:100B20008007F7D50EE0C0F800A0FFF785FD064668
:100B300005E082E0FFF780FD801B02287DD8386841
:100B40008007F7D42078400768D5DFF8CCB10027BC
:100B50000BF13C0BDBF80000C0000BD4DBF80010FD
:100B600041F08051CBF80010DBF80000012700F0C5
:100B7000805000906B4E3068C00510D4306840F44F
:100B800080703060FFF758FD009005E0FFF754FDDE
:100B90000099401A022850D83068C005F6D55E4E3C
:100BA000A0686C3601280FD00528306810D020F0DE
:100BB00001003060306820F004003060A068B8B1F7
:100BC000FFF73AFD00900FE0306840F00100F4E7D5
:100BD00040F004003060F7E7FFF72EFD0099411A5E
:100BE00041F28830814266D830688007F4D50EE043
:100BF000FFF722FD009007E0FFF71EFD0099411A64
:100C000041F28830814256D830688007F4D42FB141
:100C1000DBF8001021F08051CBF80010A069C8B3B8
:100C20003D49091D0968C1F3810102294AD0022802
:100C3000504607D0C8F8600000E03CE0FFF7FCFC3D
:100C400004463BE04746C8F86000FFF7F5FC06465F
:100C500005E000BFFFF7F0FC801B02282BD82868B6
:100C60008001F7D4D4E907010843A16A2E4A490854
:100C700002EB0141626A41EA8211084394F82C10A8
:100C800040EA0161C9F8001001203866FFF7D4FC82
:100C9000044606E03EE000BFFFF7CEFC001B022842
:100CA00009D828688001F7D534E000BFFFF7C4FCFD
:100CB000001B022802D90320BDE8F88F28688001B4
:100CC000F4D427E00128F7D0D9F80000E26900F455
:100CD000800191421CD1226A00F03F01914217D15C
:100CE00047F6C071626A0140B1EB821F10D1A26A5F
:100CF0004FF0FF3300F4403103EB5202B1EB024FEF
:100D000006D194F82C1000F07060B0EB016F01D0A8
:100D10000120D1E70020CFE704380240000047421D
:100D2000800E4742007000400000FFFF4FF0E021BE
:100D30000428086903D020F004000861704740F0DF
:100D40000400FAE710B5401EB0F1807F01D3012006
:100D500010BD4FF0E02460610F21601701F0CAFC64
:100D60000020A06107202061002010BD10B590F880
:100D70003C20012A22D0012280F83C20CA688C68DD
:100D800022F4407222434C6822F4806222430C68B1
:100D900022F4006222430C6922F4805222434C69FF
:100DA00022F400522243C969002322F480420A43FC
:100DB00001684A6480F83C30002010BD022010BD5C
:100DC00070B590F83C20012A32D0012480F83C40D4
:100DD000022280F83D2003685A689D6822F0700660
:100DE0000A6832435A60134B02689A4214D0B2F137
:100DF000804F11D0104B9A420ED0104B9A420BD01C
:100E00000F4B9A4208D00F4B9A4205D00E4B9A4294
:100E100002D00E4B9A4204D1496825F08003194351
:100E2000916080F83D40002180F83C10084670BD7C
:100E3000022070BD00000140000400400008004096
:100E4000000C004000040140004001400018004038
:100E500010B5040003D094F83D0010B107E0012064
:100E600010BD002084F83C00204600F01FF802204E
:100E700084F83D00211D206801F092F9012084F8DA
:100E8000460084F83E0084F83F0084F8400084F86F
:100E9000410084F8420084F8430084F8440084F858
:100EA000450084F83D00002010BD000008B5016831
:100EB0001248814208D11248016841F400310160B2
:100EC000006800F400300BE00D480E4A001F91420C
:100ED00008D1016841F080010160006800F08000E5
:100EE000009008BD084A9142FBD1016841F480712D
:100EF0000160006800F48070F2E7000000440140E7
:100F000044380240001C0040002000402DE9F04120
:100F10000D46040003D094F83D0018B108E001200C
:100F2000BDE8F081002084F83C00204600F040F845
:100F3000022084F83D002068816844F20702914352
:100F40008160211D206801F02BF922689068916969
:100F5000166A2B68AF69034340F20330814341EACC
:100F60000721A868EF6908434FF6FC418843E96808
:100F700040EA0720014328692F6A000140EA073050
:100F8000084369686D6926F0AA0646EA05152943F3
:100F900093602268906154F8460B0162012004F8C6
:100FA0001F09E0752076E0762077A0750020B7E76E
:100FB00070B586B0044614216846FFF74BF92468E3
:100FC000484D00224849022301264848AC4214D12A
:100FD000454C1434256845F001052560246804F06B
:100FE000010405940C6844F001040C60096801F0E8
:100FF000010105914FF4407131E03B4D1035B4F1E2
:10100000804F1BD03A4EC020B44232D12C6844F0FD
:1010100002042C602C6804F0020405940C6844F06F
:1010200004040C6009680090CDE9013201F004016C
:10103000CDE90431039269462E4816E02C6844F04D
:1010400001042C602C6804F0010405940C6844F041
:1010500001040C60096801F0010105910321009170
:10106000CDE90132CDE903266946FFF7C5F906B09F
:1010700070BD214EB44217D12C6844F004042C609A
:101080002C6804F0040405940C6844F002040C601D
:1010900009680090CDE9013201F00201CDE9043187
:1010A000039269461548E0E715488442DFD1286875
:1010B00040F008002860286800F0080005900868E3
:1010C00040F0800008600868694600F080000590E4
:1010D0004FF440600090CDE901320A48CDE9032386
:1010E000C3E7000000000140303802400000024029
:1010F00000040040000802400008004000040240D4
:10110000000C0040001C024070B590F83E600446A0
:1011100090F83F5090F8423090F84320022021B1DF
:1011200004290ED0012E1BD114E0012E18D1012B61
:1011300016D184F83E0084F8420001220021206884
:1011400020E0012D0CD1012A0AD184F83F0084F857
:10115000430014E0012D03D1012B01D1012A01D05C
:10116000012070BD84F83E0084F83F0084F84200FE
:1011700084F8430001220021206801F075F8012263
:101180000421206801F070F82068016841F0010135
:101190000160002070BD0000F0B587B00446142146
:1011A0006846FFF757F84148226800244049022565
:1011B0000326602782421FD1086840F004000860BF
:1011C000086800F004000590086840F4807008602A
:1011D0000868694600F48070059030020090CDE9FF
:1011E0000154CDE903463348FFF706F90097CDE9EE
:1011F00001546946304826E03048824212D10868DE
:1012000040F01000086008680097CDE9015400F034
:101210001000CDE90460694603942948FFF7ECF813
:1012200007B0F0BD274B28489A420FD10A6842F018
:1012300002020A60096801F002010591811500911E
:10124000CDE901546946CDE90346E7E71F4E09237E
:10125000B24209D10A6842F002020A60096801F04C
:1012600002010591F10019E0194E1A48B24209D164
:101270000A6842F001020A60096801F00101059163
:1012800040210BE0144EB242CAD10A6842F001027A
:101290000A60096801F00101059180210091CDE902
:1012A0000154CDE903436946B8E70000000401405A
:1012B0003038024000080240002002400040014057
:1012C00000100240004401400004024000180040A9
:1012D000001C0040000002400020004070B50446A1
:1012E00090F83C0000260D4601280FD0012084F81C
:1012F0003C006AB1042A1DD0082A2FD00C2A3FD006
:101300000126002084F83C00304670BD022070BDEC
:10131000206800F0B7FF2068816941F00801816111
:101320002068816921F004018161206881692A694E
:10133000114311E0206800F0D5FF2068816941F475
:10134000006181612068816921F480618161206888
:1013500081692A6941EA02218161D2E7206800F0AF
:10136000F7FF2068C16941F00801C1612068C169C7
:1013700021F00401C1612068C1692A69114311E0AB
:10138000206801F019F82068C16941F40061C16169
:101390002068C16921F48061C1612068C1692A693E
:1013A00041EA0221C161ACE710B5040003D094F812
:1013B0003D0010B107E0012010BD002084F83C0082
:1013C000204600F01FF8022084F83D00211D20680F
:1013D00000F0E6FE012084F8460084F83E0084F820
:1013E0003F0084F8400084F8410084F8420084F80B
:1013F000430084F8440084F8450084F83D00002050
:1014000010BD000008B5134A01681348914207D186
:10141000016841F002010160006800F0020009E08B
:101420000E4A914208D1016841F4803101600068A0
:1014300000F48030009008BD09488142FBD1064885
:10144000001F016841F040010160006800F04000A9
:10145000F0E7000000040140443802400040014031
:101460000018004010B50446022249B104290ED0EC
:10147000082913D094F84100012816D0012010BD8E
:1014800094F83E000128F9D184F83E200FE094F84A
:101490003F000128F2D184F83F2008E094F8400092
:1014A0000128EBD184F8402001E084F8412001229A
:1014B000206800F0D9FE16492068164A884201D0FB
:1014C000904203D1436C43F4004343642068884254
:1014D00013D0B0F1804F10D00F4988420DD00F4982
:1014E00088420AD00E49884207D0904205D00D4963
:1014F000884202D00C49884204D1816801F007017A
:10150000062903D0016841F001010160002010BDEF
:1015100000000140000401400004004000080040B9
:10152000000C004000400140001800407047704728
:10153000F8B5016804460868CA684B6910F00F0FD7
:101540004FF000055AD003F0010602F490773743BC
:1015500065D0C10705D0D10503D5216C41F001014B
:101560002164410705D5D90703D0216C41F0020160
:101570002164810705D5D90703D0216C41F004010E
:101580002164010707D502F02001314303D0216C0B
:1015900041F008012164216C00293BD0800604D56C
:1015A000900602D5204600F064FF20684069216C57
:1015B000C0F3801001F00801014320462BD000F059
:1015C00031FF20684069400621D52068143050E87A
:1015D000001F21F0400140E80012002AF5D1A06B65
:1015E000A8B16C490165A06BFEF7F3FE002811D08D
:1015F000A06B016D01B0BDE8F040084783060ED531
:1016000093060CD52046BDE8F84000F032BF2046D6
:10161000FFF78DFFF8BDFFF78AFF2564F8BD266B45
:101620002023012E79D1C60677D5D60675D5086850
:10163000486800904869400640D5A16B086840683A
:101640000004000CEAD0A28D8242E7D9E085C86987
:10165000B0F5807F2DD020680C3050E8001F21F4B9
:10166000807140E80012002AF5D12068143050E85B
:10167000001F21F0010140E80012002AF5D1206886
:10168000143050E8001F21F0400140E80012002A09
:10169000F5D184F83E30256320680C3050E8001FF7
:1016A00021F0100140E80012002AF5D1A06BFEF7EE
:1016B00047FEA08DE18D401A81B229E0A08DE18D19
:1016C000401A81B2E08D0028A8D00029A6D0206859
:1016D0000C3050E8002F22F4907240E80026002ED3
:1016E000F5D12068143050E8002F22F0010240E8C4
:1016F0000026002EF5D184F83E30256320680C309A
:1017000050E8002F22F0100240E80023002BF5D112
:101710002046FFF70BFFF8BDFFE705062BD51506A2
:1017200029D594F83D002128F5D1A068B0F5805F57
:1017300001D12069B0B1206A411C21622168007882
:101740004860E08C401E0004000CE084E3D1206877
:10175000C16821F08001C1602068C16841F040018A
:10176000C160D8E7206A0088C0F308004860206A9A
:10177000801C2062E5E74006CDD55006CBD5CA686F
:10178000204622F04002CA6084F83D3000F04FF954
:10179000C1E700001524000870B5040004D094F8D7
:1017A0003D00002510B106E0012070BD84F83C50DA
:1017B000204600F023F8242084F83D002068C1680A
:1017C00021F40051C160204600F0B4FE2068016998
:1017D00021F4904101612068416921F02A014161B1
:1017E0002068C16841F40051C1602564202084F85C
:1017F0003D0084F83E00002070BD0000F0B587B0C9
:10180000044614216846FEF725FD4049DFF8F8C07C
:10181000236800243D4A10390225032608273C4846
:10182000634522D1136843F400231360126802F465
:10183000002205920A6842F004020A60096802ABBD
:1018400001F004010591B102CDE9001583E8D00053
:101850006946FEF7D1FD002211463420FEF75AFFFB
:101860003420FEF749FF07B0F0BDDFF8A8C063459C
:101870002AD1136843F480131360126802F48012B3
:1018800005920A6842F004020A600A6802F0040243
:1018900005920A6842F008020A60096802AB01F08A
:1018A000080105914FF48051CDE9001583E8D0007F
:1018B0006946FEF7A1FD0420CDE9000502AB6946AB
:1018C00083E8D00014481BE014488342CBD1106851
:1018D00040F400301060106800F400300590086893
:1018E00040F0010008600868029400F001000590D3
:1018F0000C20CDE900050720CDE9036069460848C2
:10190000FEF77AFDAFE70000004C0040403802408F
:101910000008024000500040000C0240004400401B
:101920000000024090F83E30202B0ED159B152B148
:1019300090F83C30012B08D0012380F83C30002384
:10194000036300F07DBE0120704702207047000055
:1019500010B504460068074988420AD10648007855
:1019600001F0CAF82046BDE8104001220249FFF705
:10197000D9BF10BD004C0040080000202DE9F843FD
:10198000044690F83D001F4616460D4620284CD1CF
:10199000C5B1BEB194F83C00012846D0012084F8BE
:1019A0003C004FF00008C4F84080212084F83D003E
:1019B000FEF742FEA6848146E684A068B0F5805F0B
:1019C00003D004E00120BDE8F883206928B12E4649
:1019D0005FF0000584F83C800EE00026FAE78021E5
:1019E000204600F04AFEA0B9AEB116F8010B2168FE
:1019F0004860E08C401EE084E08C4B464FF00002D3
:101A000000970028EBD14FF04001204600F035FE52
:101A100030B10320D7E735F8020BC0F30800E6E742
:101A2000202084F83D000020CDE70220CBE770475E
:101A3000FEE700002DE9F04F87B014216846FEF75D
:101A400009FC44480024016841F01001016001686C
:101A500001F010010591016841F004010160016885
:101A600001F004010591016841F080010160016805
:101A700001F080010591016841F0010101600168F8
:101A800001F001010591016841F002010160016866
:101A900001F002010591016841F00801016001684F
:101AA00001F008010591016841F040010160016801
:101AB00001F040010591016841F480710160006806
:101AC000DFF8948000F480704FF4005505900022F8
:101AD00029464046FEF7AAFDDFF88090002240210B
:101AE0004846FEF7A3FDDFF878A0EF100022394644
:101AF0005046FEF79BFDDFF86CB0002210215846DF
:101B0000FEF794FD0095032601250396CDE90154C7
:101B100069464046FEF770FC4020CDE90005CDE95E
:101B2000024669464846FEF767FC00970396CDE9F2
:101B3000015469465046FEF75FFC1020CDE90005D0
:101B4000CDE9024669465846FEF756FC07B0BDE8A7
:101B5000F08F000030380240001C0240000C0240B0
:101B6000001802400020024010B588B01C216846D1
:101B7000FEF770FB15481449002401605921C0E9A3
:101B8000011444F61F61C0E903148461FFF760F992
:101B900008B1FEF7D3FB0D48FFF706FC08B1FEF7CE
:101BA000CDFB6020CDE9000402940022694607487D
:101BB0000494FFF793FB08B1FEF7C0FB0348FFF75F
:101BC000EBFA08B010BD0000004401405C020020A8
:101BD00010B588B01C216846FEF73CFB1548144937
:101BE0000024C0E9001442F22731C0E90241046137
:101BF0008461FFF7D9FB08B1FEF7A0FB6020CDE9B7
:101C000000040294002269460A480494FFF766FB28
:101C100008B1FEF793FB042269460648FFF75EFB16
:101C200008B1FEF78BFB0348FFF7B6FA08B010BD0A
:101C300000180040A402002010B588B01C2168469E
:101C4000FEF708FB144813490024C0E9001442F2CF
:101C50002731C0E9024104618461FFF7F9F808B156
:101C6000FEF76CFB0C48FFF79FFB08B1FEF766FB25
:101C70006020CDE9000402940022694606480494DD
:101C8000FFF72CFB08B1FEF759FB0348FFF784FA76
:101C900008B010BD001C0040EC02002010B588B058
:101CA0001C216846FEF7D6FA144813490024C0E9FF
:101CB000001442F22731C0E9024104618461FFF758
:101CC000C7F808B1FEF73AFB0C48FFF76DFB08B107
:101CD000FEF734FB6020CDE900040294002269463F
:101CE00006480494FFF7FAFA08B1FEF727FB034809
:101CF000FFF752FA08B010BD002000403403002066
:101D000010B58CB024216846FEF7A4FA00241648CA
:101D1000099414490A94C0E900144FF6FF71C0E910
:101D200002410461446184610120CDE90004CDE9F0
:101D300002040494CDE90540079469460A480894D2
:101D4000FFF7E4F808B1FEF7F9FA099409A9064883
:101D50000A94FFF735F8002801D0FEF7EFFA0CB02F
:101D600010BD0000000001406400002010B58CB0E0
:101D700024216846FEF76EFA0024144809944FF0B7
:101D800080410A94C0E90014611EC0E90241046167
:101D900084610120CDE90004CDE902040494CDE979
:101DA00005400794694609480894FFF7AFF808B161
:101DB000FEF7C4FA099409A904480A94FFF700F849
:101DC000002801D0FEF7BAFA0CB010BDAC0000201C
:101DD00010B58CB024216846FEF73CFA0024154863
:101DE000099413490A94C0E900144FF6FF71C0E941
:101DF0000241046184610120CDE90004CDE90204BF
:101E00000494CDE90540079469460A480894FFF711
:101E10007DF808B1FEF792FA099409A905480A94D9
:101E2000FEF7CEFF002801D0FEF788FA0CB010BDF7
:101E300000040040F400002010B58CB02421684656
:101E4000FEF708FA00241548099413490A94C0E9DA
:101E500000144FF6FF71C0E9024104618461012062
:101E6000CDE90004CDE902040494CDE905400794CE
:101E700069460A480894FFF749F808B1FEF75EFA88
:101E8000099409A905480A94FEF79AFF002801D091
:101E9000FEF754FA0CB010BD000800403C010020D1
:101EA00010B58CB024216846FEF7D4F900241548FB
:101EB000099413490A94C0E90014611EC0E9024163
:101EC000046184610120CDE90004CDE90204049499
:101ED000CDE90540079469460A480894FFF716F8CB
:101EE00008B1FEF72BFA099409A906480A94FEF7EF
:101EF00067FF002801D0FEF721FA0CB010BD0000EA
:101F0000000C00408401002010B592B000240F9412
:101F10001C2168461094FEF79DF9202107A8FEF7C2
:101F200099F92C482A49C0E9001442F22731C0E946
:101F30000241046144618461FFF736FA08B1FEF79B
:101F4000FDF90F940FA923481094FEF739FF08B14B
:101F5000FEF7F4F96020CDE90004029403940494A0
:101F60000594002269461B480694FFF7B7F908B1AB
:101F7000FEF7E4F9042269461648FFF7AFF908B105
:101F8000FEF7DCF9082269461248FFF7A7F908B105
:101F9000FEF7D4F90C2269460E48FFF79FF908B105
:101FA000FEF7CCF90794089409944FF400500A9472
:101FB000CDE90B4007A907480E94FEF7D7FE08B1FC
:101FC000FEF7BCF90348FFF7E7F812B010BD0000B8
:101FD00000040140CC01002010B588B01C216846E7
:101FE000FEF738F9154814490024C0E9001442F2FC
:101FF0002731C0E9024104618461FFF7D5F908B1D6
:10200000FEF79CF96020CDE90004029400226946A5
:102010000A480494FFF762F908B1FEF78FF9042229
:1020200069460648FFF75AF908B1FEF787F90348F1
:10203000FFF7B2F808B010BD0040014014020020C4
:102040000C4810B50A4901604FF4E13141600021AC
:1020500081600C22C160C0E904128161C161FFF797
:102060009BFB002803D0BDE81040FEF767B910BD08
:10207000004C00407C0300200C4810B50A49016068
:102080004FF4E1314160002181600C22C160C0E960
:1020900004128161C161FFF77FFB002803D0BDE816
:1020A0001040FEF74BB910BD00500040C0030020A7
:1020B0000C4810B50A4901604FF4E131416000213C
:1020C00081600C22C160C0E904128161C161FFF727
:1020D00063FB002803D0BDE81040FEF72FB910BD08
:1020E0000044004004040020FEE7FEE7704770470C
:1020F000FEF7A8BA30B593B030216846FEF7AAF8CB
:1021000014210CA8FEF7A6F81F480025016841F02D
:1021100080510160006800F0805011901B480168F8
:1021200041F4404101600068022400F440401190F5
:102130000120039010200490009406940820CDE91B
:102140000750B420CDE9090404200B906846FEF73F
:1021500037FC08B172B6FEE7FEF70EFB08B172B6A7
:10216000FEE70CA90F2081E831004FF4A0500F903A
:10217000109005210CA8FEF737FB002801D072B69D
:10218000FEE713B030BD0000403802400070004050
:102190000248016841F470010160704788ED00E079
:1021A000F0B50268254C264D264E274F274B4FF0A1
:1021B000804CA04209D0604507D0A84205D0B0426B
:1021C00003D0B84201D0984204D122F0700E4A6880
:1021D00042EA0E02A0421BD0604519D0A84217D097
:1021E000B04215D0B84213D0984211D0184DA84231
:1021F0000ED0184DA8420BD0174DA84208D0174D4D
:10220000A84205D0164DA84202D0164DA84203D1CF
:1022100022F44075CA682A434D6922F080022A439D
:1022200002608A68C2620A688262A04201D0984253
:1022300001D10969016301214161F0BD0000014044
:102240000004004000080040000C00400004014071
:102250000040014000440140004801400018004097
:10226000001C00400020004010B501F01F030121B8
:10227000046A99408C430462016A9A4011430162E6
:1022800010BD0000F0B5026A22F001020262036A8A
:1022900042688469124E24F073050C682C4323F0C5
:1022A00002058B682B430D4DA84201D0B04205D1E9
:1022B00023F00807CB683B4323F00403A84201D076
:1022C000B04205D14D6922F4407215438A692A4310
:1022D00042608461496841630362F0BD00000140CF
:1022E00000040140F0B5026A22F010020262026AA4
:1022F000436884690D6824F4E64444EA05248D6843
:1023000022F0200242EA05120F4D104EA84201D0E1
:10231000B04206D1CF6822F0800242EA071222F0D2
:102320004002A84201D0B04207D14D6923F4406376
:1023300043EA85038D6943EA850343608461496804
:1023400081630262F0BD0000000001400004014012
:10235000F0B5026A22F480720262026A4368C469BC
:1023600022F4007224F073050C68124E2C438D6821
:1023700042EA05220E4DA84201D0B04206D1CF68F4
:1023800022F4006242EA072222F48062A84201D0CD
:10239000B04207D14D6923F4405343EA05138D69D8
:1023A00043EA05134360C4614968C1630262F0BD3A
:1023B000000001400004014030B5026A22F480525E
:1023C0000262046A4268C3690D6823F4E64343EA83
:1023D00005238D6824F4005444EA0534084DA842CE
:1023E00002D0084DA84204D14D6922F4804242EA4D
:1023F00085124260C36149680164046230BD000017
:1024000000000140000401400148FFF791B80000BE
:102410007C03002010B5806B0021C185C184FFF7CB
:1024200086F810BD01680C3151E8002F22F490723B
:1024300041E80023002BF5D10168143151E8002F49
:1024400022F0010241E80023002BF5D1016B0129A4
:1024500009D101680C3151E8002F22F0100241E847
:102460000023002BF5D1202180F83E1000210163CC
:10247000704708B590F83E10222901D0022008BD0F
:1024800082684FF480539A4201D1016921B1816A77
:102490009A421BD04AB10AE00268816A5268C2F3CC
:1024A00008020A80816A891C08E0026972B1026828
:1024B000526802F07F020A70816A491C8162C18DF4
:1024C000491E0904090CC18503D019E0026852684D
:1024D000F1E70168CA6822F02002CA600168CA6890
:1024E00022F48072CA6001684A6922F001024A61DE
:1024F000202180F83E10016B012903D0FFF728FA54
:10250000002008BD0021016301680C3151E8002F53
:1025100022F0100241E80023002BF5D101680A687F
:10252000D20602D50A6849680091818DFEF7FEFF48
:10253000E6E7000070B5044600680169E26821F42E
:102540004051114301612169A068E2690843616952
:10255000114308432168CA6849F20C639A43024355
:10256000CA6020684169A26921F440711143416148
:1025700031492068884202D03049884202D1FEF7B2
:10258000DDF901E0FEF7CAF9E269002319216425AB
:102590003226B2F5004F626828D0A0FB0101930FEC
:1025A0009200FDF71FFE0146B0FBF5F06FF0180238
:1025B000504301EB800006EB0010B0FBF5F000F09B
:1025C000F002B1FBF5F002EB0012B1FBF5F06FF099
:1025D0001803584301EB800006EB0010B0FBF5F048
:1025E00000F00F0021681044886070BDA0FB01015D
:1025F00092185B41FDF7F6FD0146B0FBF5F00201D4
:10260000B1FBF5F06FF01803584301EB800006EBC7
:10261000C000B0FBF5F000F0F80002EB4002B1FBA7
:10262000F5F0584301EB800006EBC000B0FBF5F07D
:1026300000F00700D6E70000001001400014014040
:1026400081628285C28500210164222280F83E20B9
:1026500080F83C10016921B10168CA6842F48072B7
:10266000CA6001684A6942F001024A610068C168B3
:1026700041F02001C160002070472DE9F0419846EB
:1026800017460E460446069D27E0681C25D02DB14E
:10269000FDF7D2FFA0EB0800A8421ED920680C303D
:1026A00050E8001F21F4D07140E80012002AF5D153
:1026B0002068143050E8001F21F0010140E80012AA
:1026C000002AF5D1202084F83D0084F83E00002047
:1026D00084F83C000320BDE8F0812068006836EAF9
:1026E000000004D00020B842CFD00020F3E7012042
:1026F000F9E7FEE70907090E002804DB00F1E020F6
:1027000080F80014704700F00F0000F1E02080F81E
:10271000141D704702E008C8121F08C1002AFAD130
:1027200070477047002001E001C1121F002AFBD151
:102730007047000010B504460420FEF7F7FA014880
:10274000046010BD0000002070B5054600244FF461
:102750007A7603E0304600F005F8641CAC42F9D309
:1027600070BD000070B54FF0E02400226569094992
:10277000A36909684843A1699942FCD002D2A3EB3E
:10278000010302E0A5EB010633441A440B468242E2
:10279000F1D370BD0000002070B54FF6FF73012229
:1027A0000FA11048FFF7EAF86420FFF7CDFF41F6CC
:1027B00058354FF4FA760C4C05E02846FDF7A3FD9A
:1027C0003046FFF7C1FF20780028F6D1074C20786B
:1027D00010B100F00DF8FAE7BDE87040FDF7A2BDBA
:1027E0007A0000007C030020070000200600002083
:1027F00070B53948394C0078C0F1B00100206160F3
:10280000FDF774FDA06036480078C0F18A01002011
:102810006161FDF75BFDA06101462268A068131AA3
:102820000244C4E90332551A541858185E1A42F289
:102830002732904200DB1046954200DB15462949BD
:10284000884200DC08468D4200DC0D46964200DBE3
:102850001646944200DB14468E4200DC0E468C4243
:1028600000DC0C46002802DD00F0D0F807E002DAB8
:10287000C0F1000001E04FF0000000F0BFF8002EB2
:1028800003DD304600F0DCF807E002DAC6F10000B4
:1028900001E04FF0000000F0CBF8002D03DD2846EA
:1028A00000F0E8F807E002DAC5F1000001E04FF0BF
:1028B000000000F0D7F8002C04DD2046BDE8704091
:1028C00000F0F4B802DAC4F1000001E04FF00000BB
:1028D000BDE8704000F0E0B80400002010000020C7
:1028E00005000020D9DCFFFFFDF7B4FEFFF702FC76
:1028F000FFF7A0F8FFF708FBFFF736F9FFF700FA3C
:10290000FFF734FAFFF764FAFFF796FAFFF7C8FA11
:10291000FFF796FBFFF7B0FBFFF7CAFBFFF75CFB87
:10292000FFF756F9FFF788F9FFF7B8F9B420FFF77A
:1029300001FF00212548FEF795FD04212348FEF7FD
:1029400091FD08212148FEF78DFD0C211F48FEF75F
:1029500089FD00211E48FEF785FD04211C48FEF775
:1029600081FD00211B48FEF77DFD00211A48FEF77E
:1029700079FD00211948FEF775FD04211748FEF77F
:1029800071FD00211648FEF76DFD3C211548FEF74C
:10299000BBFB3C211448FEF7B7FB3C211348FEF774
:1029A000B3FB3C211248FEF7AFFB0122114912484C
:1029B000FEF7B8FF4FF47A70FFF7C6FE4FF4FA50F7
:1029C000FFF7C2FEFFF7E8FEFEE70000CC010020A3
:1029D000A4020020EC020020340300201402002096
:1029E0005C020020AC000020840100206400002074
:1029F000F4000020080000207C0300200249086049
:102A00000020091D08607047340401400249086035
:102A10000020091F0860704738040140034942F252
:102A200027300860091D0860704700003404014029
:102A3000024908600020091D086070473C040140FD
:102A4000024908600020091F0860704740040140E7
:102A5000034942F227300860091F086070470000F0
:102A600040040140024908600020091F08607047C7
:102A700038180040024908600020091D08607047AE
:102A800034180040034942F227300860091D0860ED
:102A90007047000034180040024A002111600249CA
:102AA00048637047341C0040002000400249086021
:102AB0000249002048637047341C00400020004059
:102AC000034942F22730086002494863704700001A
:102AD000341C0040002000400548064902790A7075
:102AE000027A4A70027B8A70007CC87070470000CE
:102AF0004C000020040000201B4B10B41B499C68B4
:102B0000002254B1012C0FD0022C11D0032C13D071
:102B1000042C15D0052C17D018E0612816D10122FD
:102B20009A60086010BC704702229A604860F9E71A
:102B300003229A608860F5E704229A60C860F1E792
:102B400005229A600861EDE77A2807D000209A6094
:102B500041F82020401C0628FADBE3E79A60486130
:102B600010BCFFF7B9BF0000040000204C0000209B
:102B7000000000000000000001020304060708092D
:102B80000000000001020304A82B00080000002040
:102B90004C00000014270008F42B00084C00002013
:102BA000FC070000242700080000000000000000CF
:102BB00000000000000000009C1800000000000061
:102BC0000000000000000000000000000000000005
:102BD00000000000000000000000000000000000F5
:102BE00000000000010000001000000000000000D4
:042BF0000024F400C9
:04000005080001AD41
:00000001FF
