:020000040800F2
:1000000048070020C10100087F1A0008BD1400083D
:100010007D1A0008F90200082920000800000000ED
:10002000000000000000000000000000031C0008A9
:10003000FB02000800000000011C0008051C00086D
:10004000DB010008DB010008DB010008DB01000820
:10005000DB010008DB010008DB010008DB01000810
:10006000DB010008DB010008DB010008DB01000800
:10007000DB010008DB010008DB010008DB010008F0
:10008000DB010008DB010008DB010008DB010008E0
:10009000DB010008DB010008DB010008DB010008D0
:1000A000DB010008DB010008DB010008DB010008C0
:1000B000DB010008DB010008DB010008DB010008B0
:1000C000DB010008DB010008DB010008DB010008A0
:1000D000DB010008DB010008DB010008DB01000890
:1000E000DB010008DB010008DB010008DB01000880
:1000F000DB010008DB010008DB010008DB01000870
:10010000DB010008DB010008DB010008DB0100085F
:10011000DB010008DB010008DB010008DB0100084F
:10012000DB010008DB010008DB010008DB0100083F
:10013000DB010008DB010008DB010008DB0100082F
:10014000DB010008DB010008DB010008DB0100081F
:10015000DB010008DB010008DB010008DB0100080F
:10016000DB010008DB010008DB010008DB010008FF
:10017000DB010008DB010008DB01000800000000D3
:10018000DB010008DB010008DB010008DB010008DF
:10019000DB010008DB010008DB010008DB010008CF
:1001A000DB010008DB010008DB010008DFF80CD0F0
:1001B00000F090F8004800472D2300084807002071
:1001C0000648804706480047FEE7FEE7FEE7FEE7F1
:1001D000FEE7FEE7FEE7FEE7FEE7FEE7A51C0008F8
:1001E000AD0100082DE9F05F0546002092469B46D0
:1001F00088460646814640241BE02846414647463D
:10020000224600F057F853465A46C01A914110D37F
:1002100011461846224600F03EF82D1A67EB0108F9
:100220004F4622460120002100F035F817EB000967
:100230004E41201EA4F10104DFDC484631462A4627
:100240004346BDE8F09FD2B201E000F8012B491E01
:10025000FBD270470022F6E710B513460A46044663
:100260001946FFF7F0FF204610BD30B50B4601469A
:1002700000202022012409E021FA02F59D4205D345
:1002800003FA02F5491B04FA02F52844151EA2F1EF
:100290000102F1DC30BD202A04DB203A00FA02F131
:1002A000002070479140C2F1200320FA03F3194364
:1002B00090407047202A04DB203A21FA02F0002106
:1002C000704721FA02F3D040C2F120029140084366
:1002D00019467047064C074D06E0E06840F0010300
:1002E00094E8070098471034AC42F6D3FFF762FF5A
:1002F00094240008B4240008FEE7704772B6FEE7B5
:100300002DE9F84FDFF8F8A10022012403254FF072
:100310000F090AF1040BAAF1040E00BF0B6804FADE
:1003200002F63340B34270D10F7907F00307012F73
:1003300001D0022F16D187684FEA420805FA08FC5F
:1003400027EA0C07D1F80CC00CFA08FC4CEA070CA1
:10035000C0F808C04768B7430E79C6F30016964048
:100360003E4346600E79F643B6070AD0C7684FEAA7
:10037000420C05FA0CF6B7438E6806FA0CF63E43BB
:10038000C6600E7906F00306022E10D1D60800EBE7
:100390008608D8F8206057074FEAD76C09FA0CF79F
:1003A000BE430F6907FA0CF73743C8F82070066898
:1003B0004FEA420C05FA0CF7BE430F7907F003072A
:1003C00007FA0CF7374307604E6816F4403F1CD01D
:1003D0004C4E376847F480473760366822F0030791
:1003E00006F480460096484E07EB060CDCF80868D9
:1003F00097073F0F09FA07F826EA0806DFF80C818D
:10040000404503D14FF0000841E072E0DFF8008181
:10041000404502D14FF0010839E0DFF8F88040454F
:1004200002D14FF0020832E0DFF8EC80404502D103
:100430004FF003082BE0DFF8E480404502D14FF095
:10044000040824E0DFF8D880404502D14FF00508C9
:100450001DE0DFF8D080404502D14FF0060816E0DD
:10046000DFF8C480404502D14FF007080FE0DFF805
:10047000BC80404502D14FF0080808E0DFF8B080AA
:10048000404502D14FF0090801E04FF00A0808FA90
:1004900007F848EA0608CCF80888DAF800605746FA
:1004A000D1F804C09E435FEACC2C00D51E433E60C9
:1004B000DBF800605F46D1F804C09E435FEA8C2CF5
:1004C00000D51E433E60DEF800607746D1F804C0D8
:1004D0009E435FEA8C3C00D51E433E60084F083FB8
:1004E0003E68D1F804C09E435FEACC3C00D51E4371
:1004F0003E60521C102AFFF411AFBDE8F88F0000D7
:10050000083C0140443802400030014000000240F5
:100510000004024000080240000C024000100240AB
:100520000014024000180240001C0240002002405B
:10053000002402400AB1816170470904FBE7000012
:10054000014880687047000024000020024881684C
:100550000278114481607047240000200B4810B5D8
:10056000016841F400710160016841F4806101603B
:10057000016841F480710160032000F061F80F20F0
:1005800000F006F800F024F8002010BD003C024006
:1005900070B50D4D04464FF47A712878B1FBF0F038
:1005A0000A490968B1FBF0F000F042FB48B9102C91
:1005B00007D200222146501E00F022F800206C6075
:1005C00070BD012070BD000024000020300000201C
:1005D0000A4808B5016841F480410160006800F4F0
:1005E000804000900548001F016841F08051016083
:1005F000006800F08050009008BD000044380240C0
:10060000F0B40E4B1B680C46C3F30223C3F107057D
:10061000042D00D90425191D072901D2002300E06B
:10062000DB1E012606FA05F1491E214099409E4035
:10063000761E16403143F0BC01F008BD0CED00E021
:10064000064900F0070208684FF6FF03184040EA29
:100650000220034A10430860704700000CED00E0E0
:100660000000FA052DE9F8431748016841F0805170
:1006700001600068154F00F08050012600903E6434
:10068000FFF75EFF05464FF47A78114C05E000BF96
:10069000FFF756FF401B40450DD86068C003F7D5F3
:1006A0007E64FFF74DFF0546464607E0FFF748FF2B
:1006B000401BB04202D90320BDE8F8836068800384
:1006C000F4D50020F8E700004038024000000E4258
:1006D000007000402DE9F0470E46050065D0DFF8B8
:1006E0001481D8F80000F7B200F00F00B04207D232
:1006F00088F80070D8F8000000F00F00B04254D124
:1007000028683D4C810712D5400703D5206840F486
:10071000E05020602878000703D5206840F460404E
:1007200020602068A96820F0F00008432060287845
:10073000C0072DD0304968680839012812D0022836
:1007400013D0032811D00968890700292DDA216800
:1007500021F0030101432160FFF7F2FE814641F2DF
:10076000883A0EE009688903EFE709688901ECE738
:10077000FFF7E6FEA0EB0901514502D90320BDE8D1
:10078000F0872068696800F00C00B0EB810FEFD1B2
:10079000D8F80010404601F00F01B14207D90770A8
:1007A000006800F00F00B04201D00120E7E7287890
:1007B000400705D52068E96820F4E0500843206030
:1007C0002878000706D52068296920F4604040EAAF
:1007D000C100206000F038F82168084AC1F3031115
:1007E000515CC8400649086006480068FFF7D0FE23
:1007F0000020C4E7003C0240083802407C24000886
:1008000030000020280000200448054900680968DD
:10081000044AC1F38221515CC84070473000002077
:10082000083802408C24000804480549006809681B
:10083000044AC1F34231515CC84070473000002087
:10084000083802408C240008154810B5006810F0E4
:100850000C02144813D01449042A0FD0082A0ED1D0
:100860000F4C241F2268236802F03F025B0207D569
:100870002068C0F38810A0FB010106E0084610BD07
:100880002168C1F38811A1FB00010023FFF7AAFC36
:100890002168C1F30141491C4900B0FBF1F010BDD2
:1008A000083802400024F40040787D012DE9F84F1B
:1008B00004006ED02078DFF84C93C007A9F104053E
:1008C0004AD009F104000168C1F38101012908D06F
:1008D0000068C0F3810002280AD1D9F80000400264
:1008E00006D52868800337D560680028E1D033E05A
:1008F0006068B0F5803F10D0B0F5A02F286810D008
:1009000020F480302860286820F480202860606807
:10091000A8B1FFF715FE06460DE0286840F48030C8
:10092000F4E740F480202860F7E700BFFFF708FEF7
:10093000801B642873D828688003F7D50CE0FFF784
:10094000FFFD064605E000BFFFF7FAFD801B6428A7
:10095000F0D828688003F7D42078DFF8AC828007CD
:100960004FF0000A3ED5A748001D016811F00C0F9A
:1009700008D00068C0F3810002280BD1D9F800002C
:10098000400207D42868800716D5E068012800D106
:1009900012E033E1E068B8B10120C8F80000FFF7C9
:1009A000CFFD064605E000BFFFF7CAFD801B022809
:1009B000C0D828688007F7D52868216920F0F8009A
:1009C00040EAC10028600DE0C8F800A0FFF7B8FDBC
:1009D000064604E0FFF7B4FD801B02281FD82868F4
:1009E0008007F7D42078000722D5864F87486169B1
:1009F000703771B101210160FFF7A2FD064604E0E6
:100A0000FFF79EFD801B022809D838688007F7D5BC
:100A10000EE0C0F800A0FFF793FD064605E082E077
:100A2000FFF78EFD801B02287DD838688007F7D439
:100A30002078400768D5DFF8CCB100270BF13C0BDC
:100A4000DBF80000C0000BD4DBF8001041F080514F
:100A5000CBF80010DBF80000012700F08050009078
:100A60006B4E3068C00510D4306840F48070306040
:100A7000FFF766FD009005E0FFF762FD0099401A60
:100A8000022850D83068C005F6D55E4EA0686C3696
:100A900001280FD00528306810D020F00100306008
:100AA000306820F004003060A068B8B1FFF748FD5E
:100AB00000900FE0306840F00100F4E740F00400DF
:100AC0003060F7E7FFF73CFD0099411A41F28830AA
:100AD000814266D830688007F4D50EE0FFF730FD1C
:100AE000009007E0FFF72CFD0099411A41F2883091
:100AF000814256D830688007F4D42FB1DBF800105B
:100B000021F08051CBF80010A069C8B33D49091D00
:100B10000968C1F3810102294AD00228504607D052
:100B2000C8F8600000E03CE0FFF70AFD04463BE047
:100B30004746C8F86000FFF703FD064605E000BF22
:100B4000FFF7FEFC801B02282BD828688001F7D411
:100B5000D4E907010843A16A2E4A490802EB014182
:100B6000626A41EA8211084394F82C1040EA01615C
:100B7000C9F8001001203866FFF7E2FC044606E0E1
:100B80003EE000BFFFF7DCFC001B022809D8286804
:100B90008001F7D534E000BFFFF7D2FC001B02282C
:100BA00002D90320BDE8F88F28688001F4D427E03B
:100BB0000128F7D0D9F80000E26900F480019142E1
:100BC0001CD1226A00F03F01914217D147F6C07153
:100BD000626A0140B1EB821F10D1A26A4FF0FF336D
:100BE00000F4403103EB5202B1EB024F06D194F80E
:100BF0002C1000F07060B0EB016F01D00120D1E744
:100C00000020CFE70438024000004742800E4742F0
:100C1000007000400000FFFF4FF0E0210428086949
:100C200003D020F004000861704740F00400FAE7A8
:100C300010B5401EB0F1807F01D3012010BD4FF0F0
:100C4000E02460610F21601701F000FA0020A0612C
:100C500007202061002010BD10B590F83C20012A2B
:100C600022D0012280F83C20CA688C6822F44072AD
:100C700022434C6822F4806222430C6822F4006212
:100C800022430C6922F4805222434C6922F4005220
:100C90002243C969002322F480420A4301684A645E
:100CA00080F83C30002010BD022010BD70B590F8D7
:100CB0003C20012A32D0012480F83C40022280F8F6
:100CC0003D2003685A689D6822F070060A68324326
:100CD0005A60134B02689A4214D0B2F1804F11D07F
:100CE000104B9A420ED0104B9A420BD00F4B9A42A7
:100CF00008D00F4B9A4205D00E4B9A4202D00E4BB1
:100D00009A4204D1496825F080031943916080F824
:100D10003D40002180F83C10084670BD022070BDA7
:100D2000000001400004004000080040000C0040AA
:100D300000040140004001400018004010B50400CC
:100D400003D094F83D0010B107E0012010BD002051
:100D500084F83C00204600F01FF8022084F83D0093
:100D6000211D206800F0A6FF012084F8460084F8C9
:100D70003E0084F83F0084F8400084F8410084F885
:100D8000420084F8430084F8440084F8450084F865
:100D90003D00002010BD000008B5006806498842EB
:100DA00008D10648016841F400310160006800F490
:100DB0000030009008BD000000440140443802406B
:100DC0002DE9F0410D46040003D094F83D0018B120
:100DD00008E00120BDE8F081002084F83C002046B6
:100DE00000F040F8022084F83D002068816844F259
:100DF000070291438160211D206800F05BFF22689B
:100E000090689169166A2B68AF69034340F203301A
:100E1000814341EA0721A868EF6908434FF6FC4186
:100E20008843E96840EA0720014328692F6A0001E6
:100E300040EA0730084369686D6926F0AA0646EA69
:100E40000515294393602268906154F8460B0162AE
:100E5000012004F81F09E0752076E0762077A07560
:100E60000020B7E7F0B587B0044614216846FFF7C5
:100E7000F1F9484A256800234749022401264748DA
:100E8000954214D1444A1432156845F001051560A5
:100E9000126802F0010205920A6842F001020A603B
:100EA000096801F0010105914FF4407130E03A4AC0
:100EB0001032B5F1804F1AD0394FC026BD4231D122
:100EC000156845F002051560126802F002020592ED
:100ED0000A6842F001020A6009680096CDE9014300
:100EE00001F00101CDE904410393694616E015685C
:100EF00045F001051560126802F0010205920A68CA
:100F000042F001020A60096801F001010591032124
:100F10000091CDE90143CDE903366946FFF7F0F9C9
:100F200007B0F0BD1F48854217D1106840F004009B
:100F30001060106800F004000590086840F002009E
:100F4000086008680096CDE9014300F00200CDE991
:100F50000440694603931448E0E714488542DFD112
:100F6000106840F008001060106800F0080005905C
:100F7000086840F0800008600868694600F080005A
:100F800005904FF440600090CDE90143CDE9033472
:100F90000748C3E70000014030380240000002402B
:100FA000000400400008004000040240000C004023
:100FB000001C024070B590F83E60044690F83F5027
:100FC00090F8423090F84320022021B104290ED03D
:100FD000012E1BD114E0012E18D1012B16D184F85B
:100FE0003E0084F8420001220021206820E0012D0B
:100FF0000CD1012A0AD184F83F0084F8430014E0A0
:10100000012D03D1012B01D1012A01D0012070BD96
:1010100084F83E0084F83F0084F8420084F84300DE
:1010200001220021206800F0A9FE0122042120688D
:1010300000F0A4FE2068016841F001010160002079
:1010400070BD0000F0B587B0044614216846FFF774
:1010500001F9294A2168002428480225032660272F
:1010600091421FD1016841F004010160016801F063
:1010700004010591016841F48071016000686946CE
:1010800000F48070059030020090CDE90154CDE964
:1010900003461B48FFF734F90097CDE90154694630
:1010A000184826E0184A914212D1016841F0100117
:1010B000016000680097CDE9015400F01000CDE90F
:1010C0000460694603941148FFF71AF907B0F0BDB0
:1010D0000F4A9142FAD1016841F0020101600068B3
:1010E000694600F00200059090150090CDE901548A
:1010F0000848CDE90346E7E70004014030380240E4
:101100000008024000200240004001400010024060
:10111000004401400004024070B5044690F83C00D1
:1011200000260D4601280FD0012084F83C006AB14A
:10113000042A1DD0082A2FD00C2A3FD001260020D7
:1011400084F83C00304670BD022070BD206800F07D
:1011500023FE2068816941F008018161206881696E
:1011600021F004018161206881692A69114311E03D
:10117000206800F041FE2068816941F400618161CE
:101180002068816921F480618161206881692A6910
:1011900041EA02218161D2E7206800F063FE206805
:1011A000C16941F00801C1612068C16921F00401F1
:1011B000C1612068C1692A69114311E0206800F00B
:1011C00085FE2068C16941F40061C1612068C16980
:1011D00021F48061C1612068C1692A6941EA022164
:1011E000C161ACE710B5040003D094F83D0010B124
:1011F00007E0012010BD002084F83C00204600F0EC
:101200001FF8022084F83D00211D206800F052FDE7
:10121000012084F8460084F83E0084F83F0084F8FA
:10122000400084F8410084F8420084F8430084F8C8
:10123000440084F8450084F83D00002010BD000003
:1012400008B50C4A01680C48914207D1016841F089
:1012500002010160006800F0020009E0074A9142C3
:1012600007D1016841F480310160006800F48030EA
:10127000009008BD00040140443802400040014095
:1012800010B50446022249B104290ED0082913D012
:1012900094F84100012816D0012010BD94F83E00BA
:1012A0000128F9D184F83E200FE094F83F0001288E
:1012B000F2D184F83F2008E094F840000128EBD1F7
:1012C00084F8402001E084F841200122206800F0E9
:1012D00055FD16492068164A884201D0904203D134
:1012E000436C43F4004343642068884213D0B0F158
:1012F000804F10D00F4988420DD00F4988420AD044
:101300000E49884207D0904205D00D49884202D04C
:101310000C49884204D1816801F00701062903D0F5
:10132000016841F001010160002010BD0000014092
:10133000000401400004004000080040000C004090
:10134000004001400018004070B5040004D094F83B
:101350003D00002510B106E0012070BD84F83C502E
:10136000204600F023F8242084F83D002068C1685E
:1013700021F40051C160204600F0D0FD20680169D1
:1013800021F4904101612068416921F02A01416105
:101390002068C16841F40051C1602564202084F8B0
:1013A0003D0084F83E00002070BD0000F0B587B01D
:1013B000044614216846FEF74DFF3A49DFF8E0C0C5
:1013C00023680024374A10390225032608273648A7
:1013D000634514D1136843F400231360126802F4C8
:1013E000002205920A6842F004020A60096801F0CE
:1013F00004010591B102CDE9001569462AE0DFF844
:10140000ACC063452ED1136843F480131360126897
:1014100002F4801205920A6842F004020A600A6827
:1014200002F0040205920A6842F008020A600968A4
:1014300002AB01F0080105914FF48051CDE9001590
:1014400083E8D0006946FEF75BFF0420CDE9000584
:101450001748694602AB83E8D00000BFFEF750FF93
:1014600007B0F0BD13488342FAD1106840F4003051
:101470001060106800F400300590086840F001002A
:1014800008600868029400F0010005900C20CDE986
:1014900000050720CDE9036069460748DEE7000044
:1014A000004C00404038024000080240005000401C
:1014B000000C02400044004000000240FEE7000033
:1014C0002DE9F04F87B014216846FEF7C3FE50485F
:1014D0000024016841F010010160016801F0100171
:1014E0000591016841F004010160016801F0040107
:1014F0000591016841F480710160016801F4807117
:101500000591016841F080010160016801F08001EE
:101510000591016841F001010160016801F00101DC
:101520000591016841F008010160016801F00801BE
:101530000591016841F040010160016801F040013E
:101540000591016841F0020101600068DFF8C49074
:1015500000F002004FF40965059000222946484634
:10156000FEF7E8FFDFF8B0A047F20C07002239468B
:101570005046FEF7DFFFDFF8A4B0002230215846C6
:10158000FEF7D8FF002240212548FEF7D3FF4FF495
:101590008068002241462348FEF7CCFF0126CDE9B2
:1015A0000056032569464846CDE90245FEF7A8FEE8
:1015B000CDE9007669465046CDE90245FEF7A0FE2A
:1015C0003020CDE9000669465846CDE90245FEF7D0
:1015D00097FE4020CDE9000669461148CDE9024555
:1015E000FEF78EFECDE9008669460E48CDE902453C
:1015F000FEF786FE700200900220CDE901046946E4
:101600000948CDE90345FEF77BFE07B0BDE8F08F42
:101610003038024000200240001C0240000002401E
:10162000000C0240001802400004024010B588B0CF
:101630001C216846FEF70EFE15481449002401607F
:101640005921C0E9011444F61F61C0E90314846103
:10165000FFF774FB08B1FEF751FE0D48FFF7C2FD1E
:1016600008B1FEF74BFE6020CDE900040294002291
:10167000694607480494FFF74FFD08B1FEF73EFEA8
:101680000348FFF7DFFC08B010BD00000044014034
:101690003002002010B58CB024216846FEF7DAFD38
:1016A00000241648099414490A94C0E900144FF61E
:1016B000FF71C0E902410461446184610120CDE908
:1016C0000004CDE902040494CDE90540079469467D
:1016D0000A480894FFF774FB08B1FEF70FFE09945F
:1016E00009A906480A94FFF7E1FA002801D0FEF79D
:1016F00005FE0CB010BD00000000014038000020C5
:1017000010B58CB024216846FEF7A4FD00241448CF
:1017100009944FF080410A94C0E90014611EC0E9A9
:101720000241046184610120CDE90004CDE9020495
:101730000494CDE905400794694609480894FFF7E9
:101740003FFB08B1FEF7DAFD099409A904480A94A1
:10175000FFF7ACFA002801D0FEF7D0FD0CB010BDA9
:101760008000002010B58CB024216846FEF772FD81
:1017700000241548099413490A94C0E900144FF64F
:10178000FF71C0E90241046184610120CDE90004D8
:10179000CDE902040494CDE90540079469460A485E
:1017A0000894FFF70DFB08B1FEF7A8FD099409A9FD
:1017B00005480A94FFF77AFA002801D0FEF79EFD4B
:1017C0000CB010BD00040040C800002010B58CB063
:1017D00024216846FEF73EFD00241548099413496C
:1017E0000A94C0E900144FF6FF71C0E90241046198
:1017F00084610120CDE90004CDE902040494CDE91F
:101800000540079469460A480894FFF7D9FA08B1D9
:10181000FEF774FD099409A905480A94FFF746FAF2
:10182000002801D0FEF76AFD0CB010BD0008004092
:101830001001002010B58CB024216846FEF70AFD87
:1018400000241548099413490A94C0E90014611E44
:10185000C0E90241046184610120CDE90004CDE9C1
:1018600002040494CDE90540079469460A480894A7
:10187000FFF7A6FA08B1FEF741FD099409A9064849
:101880000A94FFF713FA002801D0FEF737FD0CB0D9
:1018900010BD0000000C00405801002010B592B0AF
:1018A00000240F941C2168461094FEF7D3FC2021DD
:1018B00007A8FEF7CFFC2C482A49C0E9001442F2E1
:1018C0002731C0E90241046144618461FFF78AFC69
:1018D00008B1FEF713FD0F940FA923481094FFF7EA
:1018E000E5F908B1FEF70AFD6020CDE90004029495
:1018F000039404940594002269461B480694FFF75C
:101900000BFC08B1FEF7FAFC042269461648FFF703
:1019100003FC08B1FEF7F2FC082269461248FFF703
:10192000FBFB08B1FEF7EAFC0C2269460E48FFF704
:10193000F3FB08B1FEF7E2FC0794089409944FF416
:1019400000500A94CDE90B4007A907480E94FFF711
:1019500083F908B1FEF7D2FC0348FFF773FB12B01E
:1019600010BD000000040140A001002010B588B0A7
:101970001C216846FEF76EFC154814490024C0E996
:10198000001442F22731C0E9024104618461FFF78B
:1019900029FC08B1FEF7B2FC6020CDE900040294F6
:1019A000002269460A480494FFF7B6FB08B1FEF727
:1019B000A5FC042269460648FFF7AEFB08B1FEF716
:1019C0009DFC0348FFF73EFB08B010BD00400140FE
:1019D000E80100200C4810B50A4901604FF4E131DC
:1019E0004160002181600C22C160C0E90412816164
:1019F000C161FFF7A9FC002803D0BDE81040FEF745
:101A00007DBC10BD004C0040780200200C4810B591
:101A10000A4901604FF4E1314160002181600C22EC
:101A2000C160C0E904128161C161FFF78DFC00282B
:101A300003D0BDE81040FEF761BC10BD005000406F
:101A4000BC0200200C4810B50A4901604FF4E13196
:101A50004160002181600C22C160C0E904128161F3
:101A6000C161FFF771FC002803D0BDE81040FEF70C
:101A700045BC10BD0044004000030020FEE7FEE727
:101A80000B1A30B506490868CC6858434D681C1BD2
:101A900005FB04008C68CB6004FB020030BD000035
:101AA000040000200A1A054910B50869CB684C6982
:101AB0005043D31A04FB03008A6110BD04000020C8
:101AC000F8B50F4C074647F2305060620D4D286064
:101AD0000D4E616A2A68A1F5EA41A2F5EA42303A60
:101AE00030390B463846009200F010F8F0690128B2
:101AF000EFD100F0F1FB00F099FC0020F061F8BD9F
:101B00000000014024040040040000202DE9F047BB
:101B1000364C07463448089E1546206088461A46CB
:101B20003846FFF7ADFF81466FF0F900206032467E
:101B300029463846FFF7A4FF0646B7EB0800C0F178
:101B4000000101D4844600E08C467A1B5342BCF16C
:101B5000190F08DC002A01DB174600E01F46192F89
:101B600001DC0127E761002A00DA1A46002800DBC1
:101B700001461FA0E36900F059FA08EB050000EBED
:101B8000D070441041462046FFF78CFFA9EB0007B8
:101B900029462046FFF786FF841942F22731484242
:101BA0008F4201DB0F4602E0874200DC074642F22B
:101BB0005F204142844201DB044602E08C4200DCAB
:101BC0000C46002F384602DB00F09AFB01E000F0E3
:101BD0006DFB002C384603DBBDE8F04700F038BC55
:101BE000BDE8F04700F00CBC0CFEFFFF0400002035
:101BF00025642020202564202025640A00000000A0
:101C000070477047FEF7A2BC30B593B030216846EC
:101C1000FEF720FB14210CA8FEF71CFB1F48002533
:101C2000016841F080510160006800F0805011901F
:101C30001B48016841F4404101600068022400F43F
:101C400040401190012003901020049000940694CD
:101C50000820CDE90750B420CDE9090404200B90F9
:101C60006846FEF723FE08B172B6FEE7FEF7FAFCFF
:101C700008B172B6FEE70CA90F2081E831004FF4DD
:101C8000A0500F90109005210CA8FEF723FD00280E
:101C900001D072B6FEE713B030BD000040380240FC
:101CA000007000400248016841F470010160704713
:101CB00088ED00E0F0B50268254C264D264E274FF2
:101CC000274B4FF0804CA04209D0604507D0A84276
:101CD00005D0B04203D0B84201D0984204D122F0DE
:101CE000700E4A6842EA0E02A0421BD0604519D02D
:101CF000A84217D0B04215D0B84213D0984211D0A4
:101D0000184DA8420ED0184DA8420BD0174DA8422E
:101D100008D0174DA84205D0164DA84202D0164D46
:101D2000A84203D122F44075CA682A434D6922F0C3
:101D300080022A4302608A68C2620A688262A04204
:101D400001D0984201D10969016301214161F0BDCF
:101D5000000001400004004000080040000C00406A
:101D6000000401400040014000440140004801409F
:101D700000180040001C00400020004010B501F099
:101D80001F030121046A99408C430462016A9A404E
:101D90001143016210BD0000F0B5026A22F0010299
:101DA0000262036A42688469124E24F073050C686B
:101DB0002C4323F002058B682B430D4DA84201D024
:101DC000B04205D123F00807CB683B4323F004035E
:101DD000A84201D0B04205D14D6922F440721543AA
:101DE0008A692A4342608461496841630362F0BDA5
:101DF0000000014000040140F0B5026A22F0100228
:101E00000262026A436884690D6824F4E64444EA85
:101E100005248D6822F0200242EA05120F4D104E73
:101E2000A84201D0B04206D1CF6822F0800242EA37
:101E3000071222F04002A84201D0B04207D14D69FA
:101E400023F4406343EA85038D6943EA85034360D5
:101E50008461496881630262F0BD000000000140B6
:101E600000040140F0B5026A22F480720262026A44
:101E70004368C46922F4007224F073050C68124EA2
:101E80002C438D6842EA05220E4DA84201D0B04293
:101E900006D1CF6822F4006242EA072222F480626F
:101EA000A84201D0B04207D14D6923F4405343EA20
:101EB00005138D6943EA05134360C4614968C16332
:101EC0000262F0BD000001400004014030B5026A2A
:101ED00022F480520262046A4268C3690D6823F4E6
:101EE000E64343EA05238D6824F4005444EA0534AC
:101EF000084DA84202D0084DA84204D14D6922F4F1
:101F0000804242EA85124260C3614968016404620A
:101F100030BD0000000001400004014070B50446DF
:101F200000680169E26821F44051114301612169AF
:101F3000A068E26908436169114308432168CA68DF
:101F400049F20C639A430243CA6020684169A2695E
:101F500021F440711143416131492068884202D027
:101F60003049884202D1FEF75FFC01E0FEF74CFCED
:101F7000E2690023192164253226B2F5004F626818
:101F800028D0A0FB0101930F9200FEF72BF9014628
:101F9000B0FBF5F06FF01802504301EB800006EB48
:101FA0000010B0FBF5F000F0F002B1FBF5F002EB31
:101FB0000012B1FBF5F06FF01803584301EB8000FD
:101FC00006EB0010B0FBF5F000F00F0021681044A4
:101FD000886070BDA0FB010192185B41FEF702F919
:101FE0000146B0FBF5F00201B1FBF5F06FF018030C
:101FF000584301EB800006EBC000B0FBF5F000F0A9
:10200000F80002EB4002B1FBF5F0584301EB800011
:1020100006EBC000B0FBF5F000F00700D6E70000CB
:102020000010014000140140FEE700000FB4054B12
:1020300010B503A9044A029800F028F810BC5DF816
:1020400014FB000095220008340000200907090E47
:10205000002804DB00F1E02080F80014704700F055
:102060000F0000F1E02080F8141D704702E008C85E
:10207000121F08C1002AFAD170477047002001E002
:1020800001C1121F002AFBD1704700002DE9FF4F4C
:1020900089B09B460446002506E025280BD05A4609
:1020A0000B999047641C6D1C20780028F5D10DB069
:1020B0002846BDE8F08F0027B8460122474900E0D6
:1020C000074314F8013F203B02FA03F00842F7D11E
:1020D00020782E2819D114F8010F47F004072A2878
:1020E0000ED06FF02F022078A0F1300109290CD812
:1020F00008EB880102EB410100EB0108641CF2E7E8
:102100000A98641C50F8048B0A9020780028CED0DE
:10211000642808D0692806D075281ED05A460B9925
:1021200090476D1C58E00A994FF00A0901C90A91BD
:10213000002802DA40422D2102E0390504D52B2186
:102140008DF82010012103E0F90704D02021F7E7E2
:102150008A4608AE0DE00021FAE70A994FF00A0915
:1021600001C90A91F7E74946FEF77FF8303106F8D2
:10217000011D0028F7D1ADEB060000F1200978071A
:1021800001D44FF00108C84502DDA8EB090000E0CA
:1021900000208046002706E008A85A46C05D0B993B
:1021A00090476D1C7F1C5745F6DB04E030205A46F3
:1021B0000B9990476D1CB8F10001A8F10108F5DCFE
:1021C00005E016F8010B5A460B9990476D1CB9F1C2
:1021D0000001A9F10109F4DC641C65E7092801008C
:1021E0002DE9F0410024DFF84080104E254642F2F0
:1021F0002737384600F05AF8384600F001F9322007
:1022000000F020F8D8F824104046A14208D13168E7
:10221000A94205D100F060F8BDE8F04100F006B930
:10222000446A3568E5E700000000014024040040EE
:1022300010B504460420FEF7EFFC0148046010BD11
:102240000000002070B5054600244FF47A7603E0C4
:10225000304600F005F8641CAC42F9D370BD0000B4
:1022600070B54FF0E024002265690949A369096847
:102270004843A1699942FCD002D2A3EB010302E0DA
:10228000A5EB010633441A440B468242F1D370BDDC
:102290000000002004490A685206FCD5024AC1B277
:1022A000121D11607047000000440040074910B53E
:1022B0008863002249140648FEF73CF90122BDE874
:1022C000104091020348FEF735B90000004001407C
:1022D000001C02400018024010B500224FF40051CB
:1022E0000548FEF727F9BDE8104000224FF4806151
:1022F0000248FEF71FB90000001C0240001802400F
:10230000074910B58863012249140648FEF712F9FF
:10231000BDE8104000224FF480610348FEF70AB97F
:1023200000400140001C024000180240FEF716F970
:10233000FFF76AFCFFF7C4F8FFF7B0FAFFF776F98A
:10234000FFF7A8F9FFF7DCF9FFF70CFAFFF73EFA01
:10235000FFF770FAFFF73EFBFFF758FBFFF772FB42
:10236000FFF704FBB420FFF763FF00211B48FEF7D3
:1023700087FF04211948FEF783FF08211748FEF75D
:102380007FFF0C211548FEF77BFF00211448FEF764
:1023900077FF04211248FEF773FF00211148FEF772
:1023A0006FFF3C211048FEF705FE3C210F48FEF769
:1023B00001FE3C210E48FEF7FDFD3C210D48FEF7D5
:1023C000F9FDFA20FFF77CFB0BA0FFF72FFEFFF7CC
:1023D00007FF0AA0FFF72AFEFEE70000A001002089
:1023E000E801002030020020800000205801002079
:1023F00038000020C800002031000000320000003A
:10240000074910B54863002210210648FEF792F8EC
:102410000122BDE8104040210348FEF78BB80000C0
:102420000040014000200240000C024010B5002294
:1024300010210548FEF77EF80022BDE8104040213B
:102440000248FEF777B8000000200240000C02406E
:10245000074910B54863012210210648FEF76AF8C3
:102460000022BDE8104040210348FEF763B8000099
:102470000040014000200240000C0240000000002B
:102480000000000001020304060708090000000024
:1024900001020304B42400080000002038000000FA
:1024A0006C200008EC240008380000201007000011
:1024B0007C2000080000000006FFFFFF0000000075
:1024C00000000000000000009CFFFFFF0000000073
:1024D00000000000000000000100000010000000EB
:0C24E000000000000024F40000000000D8
:04000005080001AD41
:00000001FF
